:020000040000fa
:080000000001040000000000f3
:020000040000fa
:100008009a0100009a0100009a0100009a0100007c
:100018009a0100009a0100009a0100009a0100006c
:100028009a0100009a0100009a0100009a0100005c
:100038009a0100009a0100009a0100009a0100004c
:100048009a0100009a0100009a0100009a0100003c
:100058009a0100009a0100009a0100009a0100002c
:100068009a0100009a0100009a0100009a0100001c
:100078009a01000032060000900400009a01000076
:100088009a0100009a0100009a0100009a010000fc
:100098009a0100009a0100009a0100009a010000ec
:1000a8009a0100009a0100009a0100009a010000dc
:1000b8009a0100009a0100009a0100009a010000cc
:1000c8009a0100009a0100009a0100009a010000bc
:1000d8009a0100009a0100009a0100009a010000ac
:1000e8009a0100009a0100009a0100009a0100009c
:0800f8009a0100009a010000ca
:020000040000fa
:100108009a0100009a0100009a0100009a0100007b
:100118009a0100009a0100009a0100009a0100006b
:100128009a0100009a0100009a0100009a0100005b
:100138009a0100009a0100009a0100009a0100004b
:100148009a0100009a0100009a0100009a0100003b
:100158009a0100009a0100009a0100009a0100002b
:100168009a0100009a0100009a0100009a0100001b
:100178009a01000032060000900400009a01000075
:100188009a0100009a0100009a0100009a010000fb
:100198009a0100009a0100009a0100009a010000eb
:1001a8009a0100009a0100009a0100009a010000db
:1001b8009a0100009a0100009a0100009a010000cb
:1001c8009a0100009a0100009a0100009a010000bb
:1001d8009a0100009a0100009a0100009a010000ab
:1001e8009a0100009a0100009a0100009a0100009b
:0801f8009a0100009a010000c9
:020000040000fa
:100200006f8120000e7f22000e0188000000000098
:10021000000020000000e000020032000001200089
:10022000200288000c000700e0ac20000100200044
:1002300011000700000020000000e0000200320072
:100240000000020000000000e209020000000000bf
:100250000040da000000fe004440a9000000200039
:100260000000e0000300320000002000a001880030
:100270004440a8000000060091018800800078003a
:100280000000eb0015003700e280400032a0b4000f
:100290009101ba00e280400032a0b4009102ba009d
:1002a000e280400032a0b4000002eb00472bde00e9
:1002b000f507b200602ce10004003a000059eb00a1
:1002c0008301e900fdff3e00040037006128e100e2
:1002d000010032000082eb00040007001101ba00a7
:1002e0000200e000e8ff3a00000006003159ba00c1
:1002f0008301e9000c0032002159ba008301e900b2
:10030000080032000400e00003003a00e2804000f0
:1003100032a0b400f5ff370011d9ba008301e9001b
:10032000faff3a008100e800e180400032a0b4000a
:10033000000006000040da000000fe00889fbe00ba
:100340008a9fbe008c1f7800b8000700bf003300f2
:1003500003866c006450e1002e0032006420e1004e
:10036000330032006150e1002f0032006120e100d3
:100370003100320085855500eb07b00009002000f0
:1003800008042000050037000804440089844c005c
:100390000a0031000603430087834b00000153002d
:1003a00081815b00f8ff33000203be000800a0005b
:1003b0000804440089844c00f6ff3900c639dd008a
:1003c0008301730001003200130020008904d10072
:1003d0000884d3000998a300050032000800a70094
:1003e0000300a0008904d1000884d3008b05e80035
:1003f0008904d1000884d3000001eb000281d200ff
:100400004f00070001f0a1000cf0a70001f0a000d0
:10041000970037006420e100990032000801be0017
:100420000200be00f7ff37006120e10094003200b7
:100430006000b800f3ff37000000200001f827003b
:10044000f0ff37000001be00630007000470a70042
:1004500003f0a1006509b100160032000d0035005f
:100460006828e10006003500f0ff2f00f1ff2700ab
:100470000300e00013003b0001002800000005001d
:1004800000004000818048008502e900fcff3a003e
:1004900008003700f88f420002003c008000eb00ab
:1004a000000005008100d1000080d3008502e80033
:1004b000fcff3a000300e00002003b006000100077
:1004c000e0801800000006000001be0042000700a6
:1004d0000470a70003f0a10003f8a30013003a0082
:1004e0006509b10010003200090035006928e100fb
:1004f0000200350001002800000005000000400057
:10050000818048008502e900fcff3a0000000600f7
:10051000f88f4200050035008100d1000080d30033
:100520008502e800fcff3a00000006008000eb00b6
:10053000000005004f89de00820178008700370047
:1005400081002000618055000b003d000b00200061
:1005500061fe2f000100e1001d0034008281710066
:10056000610164008904d1000884d3000000e80020
:10057000faff3a007100200061006400030070007f
:10058000020060000900320061044400e0844c0075
:100590000988a500050032008b05e8006808e10025
:1005a00002003a008904d1000884d300f20f200031
:1005b0000258e10005003d00c75ddd00f907b2000b
:1005c0008980750008007800000006000bf82700fd
:1005d0008b00780000000500c70ade00f107b200ba
:1005e000f50fb20008003200e1cf420002003200f5
:1005f0000170a00024000500810f7000010032008e
:100600000408050044000500810f700002003a0054
:10061000140005008502e9000000400081c0480088
:10062000fcff3b000170a000240005000004be0098
:10063000e9ff07000003be000405be000200be0083
:10064000e5ff0700844f7500000006000200be00b1
:100650006450e100050036006420e100020036002d
:100660000968a30001003a000800be000160a00074
:100670004f0678004f05be004f04be000000060084
:10068000f0ff2f00f1ff2700f9ff3700889fbe0021
:100690008a9fbe008c1f7800e4ff0700ebff330049
:1006a00003866c006450e100240032006420e10005
:1006b000270032006150e100220032006120e10099
:1006c000210032008b854200eb07b1000134b800f5
:1006d000003ab8000804420089844a00013ab80090
:1006e0000030b8008880400009014a00040033004f
:1006f0000000400081804800020149008b05e900ac
:10070000c909dd00830170000100320013002000e0
:10071000c814de004814dd004709de001200b200f4
:10072000c808de000884700085ff070001f0a10002
:100730000cf0a70001f0a000cdff37006120e10020
:10074000cfff32000801be000200be00f7ff3700f5
:100750006150e100fcff3a00c9ff3700881f7800b4
:10076000030478000300e00007003d006000100073
:10077000e080180060011900e081190002003b00d0
:1007800001f02d00030037000400070008f0a70067
:1007900001f0a0004f04780000000600889fbe0012
:1007a0008a9fbe0000827000040271000482710002
:1007b000260032000004be000200be006011b80036
:1007c0006b092000950220000182cf000a00390049
:1007d0000541b1000082cf00070039000541b1009a
:1007e0000982cf00040039000541b1000882cf0022
:1007f000010039000541b1000542520012003200eb
:100800000a003b0082817100610164008100d10017
:100810000080d3008984d3000884d3008b05e800ce
:100820000442e800f7ff3a000700370008044400dc
:1008300089844c0000004800818048008b05e90055
:100840000442e900f9ff3a003dff07004f05be00f2
:080850004f04be000000060089
:020000040000fa
:100858000200fa00000f78000002eb00040988008b
:100868001e027800e00f52000c003a00268020009b
:100878006022b800048bbe0024802000b4029000df
:100888002402900061024200e0824a002680200093
:1008980024039800350398001d00370004098000e0
:1008a8000440a0000450a000040988000002eb00e6
:1008b800c40888001e027800cfa2de000400be0033
:1008c8001aff07000002be000200200003382400bf
:1008d8000400be006bff07000002be000401be005a
:1008e8000000200011b6240092fe07000002be009e
:1008f8000400be00f2fe07000002be0004027800f9
:10090800e408880086c0a9008ec0a80021e1a800dc
:100918000080fa00000006003600f800809fbe0044
:10092800829fbe00849fbe00869fbe003400f800f0
:1009380000002000a00188000000fa0086c0a9007d
:100948000440800061026200e00f5200380032006b
:10095800a4408000e00f52001a003a00b41680004c
:1009680004427800614262000404a200614262000d
:100978000482fb0061026200b6168000e5ff2f00ca
:100988008502630005027200b4168800b416800060
:100998000402d100614262000404a20061426200c4
:1009a8000482fb006102620004024200b616800065
:1009b800d5ff2f008502630005027200b416880077
:1009c80052003700b41680004222de006142620005
:1009d8000404a200614262000482fb00610262001a
:1009e8004222dd00b6168000b5ff2f0085026300a5
:1009f80005027200b4168800b41680004322de0097
:100a0800614262000404a200614262000482fb00a9
:100a1800610262004322dd00b616800075ff2f00d8
:100a28008502630005027200b4168800370037009b
:100a3800a4408000e00f52001a003a00b41680006b
:100a480004427800614262000404a200614262002c
:100a58000482fb0061026200b6168000e5ff2f00e9
:100a68008502630005027200b4168800b41680007f
:100a78000402d100614262000404a20061426200e3
:100a88000482fb006102620004024200b616800084
:100a9800d5ff2f008502630005027200b416880096
:100aa8001a003700b41680004222de00614262005c
:100ab8000404a200614262000482fb006102620039
:100ac8004222dd00b6168000b5ff2f0085026300c4
:100ad80005027200b4168800b41680004322de00b6
:100ae800614262000404a200614262000482fb00c9
:100af800610262004322dd00b616800075ff2f00f8
:100b08008502630005027200b4168800a4408000c4
:100b18000400a200a440880024802000b4029000b1
:100b28002402900061024200e0824a0026802000f0
:100b38002403980035039800ee00070000027800af
:100b480004f0a7000402ea000402e9004f22de00d4
:100b5800044278000482fb00610262000402420041
:100b680006408000d5ff2f00850263000502720051
:100b7800044088000080fa003400f9004f03be00ea
:100b88004f02be004f01be004f00be003600f90004
:100b9800004006000200fa00000f78000002eb0097
:100ba800f40888001e027800e00f52000c003a009a
:100bb800a68020006022b800048bbe00a48020001c
:100bc800b40290002402900061024200e0824a00d0
:100bd800a680200024039800350398001d003700e4
:100be800f40880000440a0000450a000f408880025
:100bf8000002eb00a40888001e027800cfa2de00e5
:100c08000400be0049fe07000002be0002002000ea
:100c1800033824000400be009afe07000002be004c
:100c28000401be000000200011b62400c1fd070029
:100c38000002be000400be0021fe07000002be0044
:100c480004027800d408880086a0a9008ea0a80015
:100c58001fe1a8000080fa00000006003600f80036
:100c6800809fbe00829fbe00849fbe00869fbe00fc
:100c78003400f80000002000a00188000000fa00fd
:100c880086a0a9000440800061026200e00f5200c3
:100c98003900320094408000e00f52001b003a00f7
:100ca800b41680004422de00614262000404a200ff
:100cb800614262000482fb00610262004422dd009e
:100cc800b6168000f5fe2f0085026300050272004b
:100cd800b4168800b41680004522de006142620026
:100ce8000404a200614262000482fb006102620007
:100cf8004522dd00b6168000f5fd2f008502630051
:100d080005027200b416880053003700b41680003c
:100d18004622de00614262000404a20061426200d1
:100d28000482fb00610262004622dd00b6168000e4
:100d3800f5fb2f008502630005027200b4168800d7
:100d4800b41680004722de00614262000404a2005b
:100d5800614262000482fb00610262004722dd00fa
:100d6800b6168000f5f72f008502630005027200b1
:100d7800b41688003800370094408000e00f520015
:100d88001b003200b41680004422de00614262007b
:100d98000404a200614262000482fb006102620056
:100da8004422dd00b6168000f5fe2f0085026300a0
:100db80005027200b4168800b41680004522de00d1
:100dc800614262000404a200614262000482fb00e6
:100dd800610262004522dd00b6168000f5fd2f0095
:100de8008502630005027200b41688001a003700f5
:100df800b41680004622de00614262000404a200ac
:100e0800614262000482fb00610262004622dd004a
:100e1800b6168000f5fb2f008502630005027200fc
:100e2800b4168800b41680004722de0061426200d2
:100e38000404a200614262000482fb0061026200b5
:100e48004722dd00b6168000f5f72f008502630003
:100e580005027200b4168800944080000400a200c5
:100e680094408800a4802000b402900024029000de
:100e780061024200e0824a00a68020002403980014
:100e8800350398001b0007000002780004f0a70053
:100e98000402ea000402e9004f22de00044278005e
:100ea8000482fb00610262000402420006408000e6
:100eb800d5ff2f00850263000502720004408800f8
:100ec8000080fa003400f9004f03be004f02be0054
:100ed8004f01be004f00be003600f900004006007a
:100ee8000000fa0054052000b41688000080fa00bb
:100ef800000006000000fa0024802000240390006f
:100f0800b4039000248020001402be00840f530014
:100f1800858f5b000a003500a48020002403900020
:100f2800b4039000a48020001402be00840f530074
:100f3800858f5b0002003500140020000100370097
:100f48000002eb00040078000080fa0000000600b0
:100f58000400fa00008fbe009e0290001e02780076
:100f680004aab900040278004f22de0004007800c9
:100f78000080fa00000006000200fa00000f780066
:100f88001e02780014029000ec0f420004003d009d
:100f98001e02780045ff2f00150298000700370051
:100fa8001e02780014029000ec0f52000300340077
:100fb8001e027800c5002000150298001e02780065
:100fc80014027800ec0f420004003d001e02780075
:100fd80045ff2f00050a7800070037001e02780039
:100fe80014027800ec0f5200030034001e0278004f
:100ff800c5002000050a78000080fa0000000600fd
:101008000800fa002007980031079800640247009a
:1010180004007800d8ff07002e009000be00900062
:10102800cbff070000027800e00f520002003200f8
:101038000008a800010037000008a9003e0290003f
:101048008402780005f0a7008502ea00843e2000ab
:1010580004aab90084027800d40020001100090015
:101068008402d80000027800040f78002e02900055
:101078008402780005f0a7008502ea00843e20007b
:1010880004aab90084027800d400200011000900e5
:101098008402d80000027800140798001e00780027
:1010a800ebfd07001e009000bafe07000080fa0062
:1010b800000006000400fa00008fbe001e02900027
:1010c800cfa2de0026802000048bbe001e0278001e
:1010d800cfa2de00a6802000048bbe000080fa00ac
:1010e800000006000800fa00008fbe0022079800e2
:1010f800330798000028a800268020006022b80046
:101108002403980035039800a68020006022b800c8
:1011180024039800350398001e00be00e5ff070071
:101128002e009000be009000b5ff07003e02900020
:10113800e00f520005003a002e029000e00f520026
:1011480004003a000028a90003003700000000004e
:1011580001003700000000000440800062026200c5
:10116800e00f5200fcff3a000080fa000000060081
:101178000400fa00000f780011079800248020006e
:10118800b402900024029000840278001e027800c5
:10119800050a7800a4802000b40290002402900080
:1011a800840278001e029000050a78000080fa0088
:1011b800000006000400fa001fe1a90021e1a900cf
:1011c800d682a900d6a2a900d6c2a900d6e2a90053
:1011d800046c2f00241688006022b800048fbe001b
:1011e8000500370000000000140020000500200062
:1011f8001e0f42005e974a00f47b220095002000f3
:101208001e03be00840f5300858f5b00f5ff34007a
:101218000002eb00241688000080fa000000060097
:101228001000fa0060079800710798007e0290008d
:10123800e10f520002003a000082eb000100370083
:1012480014002000040f78009e0278006e029000bf
:1012580004aab90004027800cfa2de000400be0090
:10126800b2fc07000002be0002002000830f240029
:101278000400be0003fd07000002be000400be001b
:101288006efc07000002be00140798001e029000c2
:10129800440798001e02900054079800a40f2000ed
:1012a80024079800a40f2000340798002e0190000e
:1012b800be0190004e009000de00900089ff0700fc
:1012c8000080fa00000006000200fa00000f780013
:1012d8000080fa00000006000c00fa00889fbe009b
:1012e8008a9fbe0068025700040f78000002eb00d6
:1012f80014079800160037001e027800680f520085
:101308001e0278003404be002405be002807980099
:10131800390798004a0798005b079800de0290009a
:101328002e0290008500780004007800bcff0700ba
:10133800000000000440800062026200e00f5200da
:10134800fcff3a001e0290000402e800140798000f
:101358009e0290004eba9700848f5200e6ff350037
:101368004f05be004f04be000080fa0000000600d2
:101378000000fa00268020006022b80024039800ac
:1013880035039800268020006022b800048bbe0038
:10139800a68020006022b800240398003503980036
:1013a800a68020006022b800048bbe000008a900b7
:1013b8000028a8000080fa00000006001400fa00c7
:1013c8006022b800048fbe0005003700000000004e
:1013d80014002000050020001e0f42005e974a00fe
:1013e800f47b2200950020001e03be00840f5300ea
:1013f800858f5b00f5ff34000002eb00241688009f
:101408001e000700daff0700b5fe0700441f200092
:1014180024079800441f200034079800843e2000c9
:1014280044079800843e20005407980064ff2f006a
:1014380064079800a400200074079800a400200006
:10144800040f980064ff2f00140f98006e0190009d
:10145800fe0190002e009000be00900021ff0700c2
:101468000e0990009e0990004e009000de0090004a
:101478001cff07004fff0700ffff37000000fa00be
:10148800c4c2a900c4e2a900c522a900c582a90056
:10149800c542a900c5a2a900c5c2a900c5e2a90004
:1014a800c0c2a900c0e2a900c122a900c182a90046
:1014b800c142a900c1a2a900c1c2a900c1e2a900f4
:1014c800d022a900cc22a900d042a900cc42a90070
:1014d800e2e2a900e302a900e802a900e822a900c3
:1014e800dee2a900df02a900e402a900e422a900c3
:1014f800e202a900de02a900d602a900d622a900ac
:10150800d642a900d662a900d682a900d6a2a9000f
:10151800d6c2a900d6e2a900d202a900d222a90007
:10152800d242a900d262a900d282a900d2a2a900ff
:10153800d2c2a900d2e2a900d1a2a900cda2a900d5
:10154800e842a900e862a900e442a900e462a9000f
:10155800de22a800dec2a800e4c2a800e4e2a800d7
:10156800e502a800e522a800de22a800d302a80010
:10157800d322a800d342a800d362a800d382a8002f
:10158800d3a2a800d3c2a800d3e2a8000080fa0022
:041598000000060049
:020000040000fa
:10159c000008000016000000000000000000000021
:020000040000fa
:0200000401f009
:04000000e6bf000057
:020000040000fa
:0200000401f009
:04000400ff7f00007a
:020000040000fa
:0200000401f009
:040008007fff000076
:020000040000fa
:0200000401f009
:04001400ffff0000ea
:00000001FF
