:020000040000fa
:080000000001040000000000f3
:020000040000fa
:100008009e0300009e0300009e0300009e03000064
:100018009e0300009e0300009e0300009e03000054
:100028009e0300009e0300009e0300009e03000044
:100038009e0300009e0300009e030000c607000008
:100048009e0300009e0300009e0300009e03000024
:100058009e0300009e0300009e0300009e03000014
:100068009e0300009e0300009e0300009e03000004
:100078009e030000260200009a0100009e03000073
:100088009e0300009e0300009e0300009e030000e4
:100098009e0300009e0300009e0300009e030000d4
:1000a8009e0300009e0300009e0300009e030000c4
:1000b8009e0300009e0300009e0300009e030000b4
:1000c8009e0300009e0300009e0300009e030000a4
:1000d8009e0300009e0300009e0300009e03000094
:1000e8009e0300009e0300009e0300009e03000084
:0800f8009e0300009e030000be
:020000040000fa
:100108009e0300009e0300009e0300009e03000063
:100118009e0300009e0300009e0300009e03000053
:100128009e0300009e0300009e0300009e03000043
:100138009e0300009e0300009e030000c607000007
:100148009e0300009e0300009e0300009e03000023
:100158009e0300009e0300009e0300009e03000013
:100168009e0300009e0300009e0300009e03000003
:100178009e030000260200009a0100009e03000072
:100188009e0300009e0300009e0300009e030000e3
:100198009e0300009e0300009e0300009e030000d3
:1001a8009e0300009e0300009e0300009e030000c3
:1001b8009e0300009e0300009e0300009e030000b3
:1001c8009e0300009e0300009e0300009e030000a3
:1001d8009e0300009e0300009e0300009e03000093
:1001e8009e0300009e0300009e0300009e03000083
:0801f8009e0300009e030000bd
:020000040000fa
:100200000f8220000e7f22000e01880000000000f7
:10021000000020000000e000020032000001200089
:10022000200288000c000700c0a820000100200068
:1002300011000700000020000000e0000200320072
:100240000000020000000000f409020000000000ad
:100250000040da000000fe004440a9000000200039
:100260000000e0000300320000002000a001880030
:100270004440a8000000060091018800800078003a
:100280000000eb0015003700e280400032a0b4000f
:100290009101ba00e280400032a0b4009102ba009d
:1002a000e280400032a0b4000002eb00472bde00e9
:1002b000f507b200602ce10004003a000059eb00a1
:1002c0008301e900fdff3e00040037006128e100e2
:1002d000010032000082eb00040007001101ba00a7
:1002e0000200e000e8ff3a00000006003159ba00c1
:1002f0008301e9000c0032002159ba008301e900b2
:10030000080032000400e00003003a00e2804000f0
:1003100032a0b400f5ff370011d9ba008301e9001b
:10032000faff3a008100e800e180400032a0b4000a
:1003300000000600849fbe00869fbe003400f800c7
:1003400004002000a40188000000fa0086c0a90073
:1003500094408000e00f52000c003400b440800054
:100360000402e800b4408800e44080000402e90090
:10037000e4408800e4408000e00f52000e003d00a1
:1003800034002000e44088000b003700b4408000b7
:100390000402e900b4408800e44080000402e80060
:1003a000e4408800e4408000e30f52000200340083
:1003b0000002eb00e4408800e4408000cfa2de00b1
:1003c0003600200007002000860f5200878f5a0059
:1003d00019003e00046001000300370007003700e9
:1003e0000b0037000f003700d602a900d622a80064
:1003f000d642a900d662a8000f003700d602a90095
:10040000d622a800d642a800d662a9000a0037006a
:10041000d602a800d622a900d642a800d662a9001a
:1004200005003700d602a800d622a900d642a900ae
:10043000d662a800000000000080fa003400f90035
:100440004f03be004f02be0000400600849fbe0066
:10045000869fbe003400f80004002000a40188003c
:100460000000fa0086a0a900a4408000e00f52001e
:100470000c003d00c44080000402e900c440880034
:10048000d44080000402e900d4408800d4408000b9
:10049000e00f52000e003d0034002000d4408800e0
:1004a0000b003700c44080000402e800c44088000c
:1004b000d44080000402e800d4408800d44080008a
:1004c000e30f5200020034000002eb00d440880029
:1004d000d4408000cfa2de003600200007002000bc
:1004e000860f5200878f5a0019003e0004600100f9
:1004f00003003700070037000b0037000f003700fc
:10050000d682a900d6a2a800d6c2a900d6e2a80029
:100510000f003700d682a900d6a2a800d6c2a80034
:10052000d6e2a9000a003700d682a800d6a2a90008
:10053000d6c2a800d6e2a90005003700d682a800de
:10054000d6a2a900d6c2a900d6e2a80000000000e9
:100550000080fa003400f9004f03be004f02be00d5
:10056000004006000000fa00a60307000080fa0021
:10057000000006000200fa00000f78001e0278005a
:10058000e00f520006003a0021e1a900d602a900be
:10059000d622a900d642a900d662a9001f003700c2
:1005a00021e1a9001e027800944088000002eb00bf
:1005b00004098800040980000440a0000450a00041
:1005c000040988000002eb00c40888001e027800bd
:1005d00004f0a7000402ea00cfa2de000400be007f
:1005e000d80007000002be000401be000000200089
:1005f00011762400530007000002be000400be0074
:10060000b50007000002be0004027800e40888007c
:1006100086c0a9008ec0a80021e1a8000080fa00d1
:10062000000006000200fa00000f78001e027800a9
:10063000e00f520006003a001fe1a900d682a9008f
:10064000d6a2a900d6c2a900d6e2a9001f00370091
:100650001fe1a9001e027800a44088000002eb0000
:10066000f4088800f40880000440a0000450a000b2
:10067000f40888000002eb00a40888001e0278003d
:1006800004f0a7000402ea00cfa2de000400be00ce
:10069000ac0007000002be000401be000000200004
:1006a00011762400270007000002be000400be00ef
:1006b000890007000002be0004027800d408880008
:1006c00086a0a9008ea0a8001fe1a8000080fa0063
:1006d000000006000000fa00b4408000040078002a
:1006e0000080fa00000006000200fa00000f780007
:1006f0001027fc001e027800b44088000200fc00b5
:100700000080fa00000006000000fa00c4408000eb
:10071000040078000080fa00000006000200fa00e1
:10072000000f78001027fc001e027800c4408800eb
:100730000200fc000080fa00000006000040da0021
:100740000000fe00889fbe008a9fbe008c1f7800bc
:10075000bc000700c300330003866c006450e10056
:100760002e0032006420e100330032006150e100cd
:100770002f0032006120e1003100320085855500f4
:10078000eb07b00009002000080420000500370036
:100790000804440089844c000a0031000603430029
:1007a00087834b000001530081815b00f8ff330019
:1007b0000203be000800a0000804440089844c0025
:1007c000f6ff3900c639dd008301730001003200f5
:1007d000130020008904d1000884d3000998a300e5
:1007e000050032000800a7000300a0008904d10022
:1007f0000884d3008b05e8008904d1000884d30065
:100800000001eb000281d2005300070001f0a100bb
:100810000cf0a70001f0a0009b0037006420e1006d
:100820009d0032000801be000200be00f7ff370045
:100830006120e100980032006000b800f3ff37004b
:100840000000200001f82700f0ff3700f4ff2f0020
:10085000c80037000001be00650007000470a70053
:1008600003f0a1006509b100160032000d0035004b
:100870006828e10006003500f0ff2f00f1ff270097
:100880000300e00013003b00010028000000050009
:1008900000004000818048008502e900fcff3a002a
:1008a00008003700f88f420002003c008000eb0097
:1008b000000005008100d1000080d3008502e8001f
:1008c000fcff3a000300e00002003b006000100063
:1008d000e0801800000006000001be004400070090
:1008e0000470a70003f0a10003f8a30013003a006e
:1008f0006509b10010003200090035006928e100e7
:100900000200350001002800000005000000400042
:10091000818048008502e900fcff3a0000000600e3
:10092000f88f4200050035008100d1000080d3001f
:100930008502e800fcff3a00000006008000eb00a2
:10094000000005004f89de0082017800a400370016
:100950006011b800b20037008100200061805500ae
:100960000b003d000b00200061fe2f000100e100a4
:100970001d00340082817100610164008904d1008e
:100980000884d3000000e800faff3a00710020005c
:100990006100640003007000020060000900320082
:1009a00061044400e0844c000988a5000500320081
:1009b0008b05e8006808e10002003a008904d100d4
:1009c0000884d300f20f20000258e10005003d002a
:1009d000c75ddd00f907b200898075000800780066
:1009e000000006000bf827008b00780000000500cf
:1009f000c70ade00f107b200f50fb20008003200ae
:100a0000e1cf4200020032000170a0002400050086
:100a1000810f700001003200040805004400050049
:100a2000810f700002003a00140005008502e90001
:100a30000000400081c04800fcff3b000170a000a6
:100a4000240005000004be00e9ff07000003be000b
:100a50000405be000200be00e5ff0700844f7500dc
:100a6000000006000200be006450e10005003600f0
:100a70006420e100020036000968a30001003a008a
:100a80000800be000160a0004f0678004f05be00c0
:100a90004f04be0000000600f0ff2f00f1ff27000a
:100aa000f9ff3700889fbe008a9fbe008c1f780028
:100ab000e4ff0700ebff330003866c006450e100a5
:100ac000240032006420e100270032006150e10080
:100ad000220032006120e100210032008b854200bb
:100ae000eb07b1000134b800003ab8000804420036
:100af00089844a00013ab8000030b800888040007c
:100b000009014a00040033000000400081804800d1
:100b1000020149008b05e900c909dd00830170006d
:100b20000100320013002000c814de004814dd006c
:100b30004709de001200b200c808de000884700019
:100b400085ff070001f0a1000cf0a70001f0a00054
:100b5000cdff37006120e100cfff32000801be0069
:100b60000200be00f7ff37006150e100fcff3a00d1
:100b7000c9ff3700889fbe008a9fbe00841f78008f
:100b8000b0ff07004f00780011003300f0ff2f0086
:100b9000838f6c0006003b00040565000a00a70077
:100ba0000800370009f0a6001000200008003700f8
:100bb000820f5400838f5c00030039001000200076
:100bc00001003e000000200009f0a7000000ea003c
:100bd0004f05be004f04be000000e000000006000c
:100be000881f7800030478000300e00007003d0040
:100bf00060001000e080180060011900e081190019
:100c000002003b0001f02d00030037000400070044
:100c100008f0a70001f0a0004f04780000000600d3
:100c2000889fbe008a9fbe0000827000040271008f
:100c300004827100260032000004be000200be00e3
:100c40006011b8006b092000950220000182cf00de
:100c50000a0039000541b1000082cf0007003900c9
:100c60000541b1000982cf00040039000541b100ff
:100c70000882cf00010039000541b1000542520051
:100c8000120032000a003b008281710061016400a1
:100c90008100d1000080d3008984d3000884d30070
:100ca0008b05e8000442e800f7ff3a000700370030
:100cb0000804440089844c000000480081804800fa
:100cc0008b05e9000442e900f9ff3a0022ff070022
:0c0cd0004f05be004f04be0000000600ef
:020000040000fa
:100cdc000400fa00008fbe001e0278008402780027
:100cec0005f0a7008502ea005440800004f0a7003c
:100cfc000402ea00848f52000b0035001e029000a3
:100d0c008402780005f0a7008502ea0064408000a8
:100d1c0004f0a7000402ea00848f520002003500a0
:100d2c0014002000010037000002eb0004007800e2
:100d3c000080fa00000006000400fa00881f78000a
:100d4c00008fbe0018c0b300a2702d0033c2230068
:100d5c001e00be00bafe070000027800e00f520031
:100d6c0001003d000044eb00e04f54000200320053
:100d7c00340020002800370018c0b300f2262100f0
:100d8c0033a823001e00be00adfe07000002780051
:100d9c00e00f520001003d000044eb00e04f540016
:100dac0002003200240020001b00370018c0b300e2
:100dbc0072712b00138d23001e00be00a0fe0700d5
:100dcc0000027800e00f520001003d000044eb00ef
:100ddc00e04f540002003200140020000e003700d7
:100dec0018c0b300c25a2c00737223001e00be0040
:100dfc0093fe070000027800e00f520001003d0056
:100e0c000044eb00e04f5400020032000002eb0003
:100e1c00010037000082eb00040078004f047800da
:100e2c000080fa00000006001000fa00500798003d
:100e3c0061079800720798005e029000ee02900025
:100e4c0054408800654088000002eb007440880024
:100e5c000002eb0084408800de0290006e029000dd
:100e6c0004824200cfa2de000400be00b2fe0700e6
:100e7c000002be0002002000030024000400be009b
:100e8c002dfe07000002be00048fbe007e02900003
:100e9c00cfa2de000400be00a7fe07000002be00c9
:100eac001e01be000400be0023fe07000002be00af
:100ebc0024079800350798002e009000be00900083
:100ecc009dff070000027800440798000002eb0029
:100edc00940888004e02900004427800634262003d
:100eec000482fb00630262004422dd00960880004d
:100efc00f5fc2f008502630005027200940888003f
:100f0c000002eb00540888004e029000cfa2de00d5
:100f1c000400be0088fe07000002be000401be00f3
:100f2c000000200011b6240003fe07000002be00e2
:100f3c002e019000be0190000400be00d6fe0700fa
:100f4c000002be0002002000030a24000400be00c0
:100f5c00f9fd07000002be000400be005bfe0700a6
:100f6c000002be00040278007408880084e0a90026
:100f7c008ce0a80013e1a8000080fa000000060035
:100f8c003600f800809fbe00829fbe00849fbe008a
:100f9c00869fbe003400f80000002000a0018800ed
:100fac000000fa0084e0a900241680004622de002e
:100fbc00614262000404a200614262000482fb00f0
:100fcc00610262004622dd0026168000f5fb2f0030
:100fdc0085026300050272002416880070408000b0
:100fec00814080003aff070000027800e00f5200b9
:100ffc0009003a0074408000650242007440880089
:10100c00844080006502420084408800704080006b
:10101c008140800090000700b400070000027800b7
:10102c0004f0a7000402ea000402e9004f22de00eb
:10103c00444088000080fa003400f9004f03be00e1
:10104c004f02be004f01be004f00be003600f9003b
:10105c00004006000800fa00008fbe00220798002e
:10106c003307980014002000444088000000eb0077
:10107c009afd07000000eb00a5fd07001e0278009a
:10108c000500200024408800354088001e02900096
:10109c000500200004408800154088002e009000b8
:1010ac00be0090006c00070000000000444080006f
:1010bc00e00f5200fdff3a000080fa00000006002d
:1010cc000c00fa00500798005e029000e00f5200ee
:1010dc0015003d005e0290000402ea00cfa2de0083
:1010ec000400be0014fe07000002be0002be240075
:1010fc00134a24000400be0067fe07000002be0075
:10110c0002002000433b24000400be008afd0700bf
:10111c000002be000400be00cbfd07000002be00b2
:10112c0004027800130037005e029000cfa2de00ac
:10113c000400be0000fe07000002be0002be240038
:10114c00134a24000400be0053fe07000002be0038
:10115c0002002000433b24000400be0076fd070083
:10116c000002be000400be00b7fd07000002be0076
:10117c0004027800040f78009e0278001e027800aa
:10118c0015079800240798005e029000e00f5200ab
:10119c0005003d0004e72f003407980004192000d7
:1011ac004407980004003700041920003407980005
:1011bc0004e72f00440798003e019000ce019000f8
:1011cc001e009000ae009000a2ff07000080fa0005
:1011dc00000006000a00fa0030079800410798004a
:1011ec003e029000050020000400be00d5fd070063
:1011fc000002be0002002000830f24000400be0089
:10120c0025fe07000002be000400be00affd070073
:10121c000002be00040f78001e027800140798002c
:10122c001e027800240798004e029000e00f520036
:10123c00020032004e009000a1ff070072408000b7
:10124c00834080001e009000ae00900081ff0700dc
:10125c000080fa00000006000400fa00008fbe00b7
:10126c001e02780004007800bffc07001e029000ec
:10127c0004007800e8fc07000080fa00000006007b
:10128c000400fa001fe1a90021e1a900d682a900ff
:10129c00d6a2a900d6c2a900d6e2a900046c2f00e0
:1012ac00241688006022b800048fbe0005003700a9
:1012bc000000000014002000050020001e0f42005a
:1012cc005e974a00f47b2200950020001e03be00ae
:1012dc00840f5300858f5b00f5ff34000002eb0098
:1012ec00241688000080fa00000006000000fa00b6
:1012fc00f5fc070000027800e00f520004003d00ee
:10130c00f1fc0700000278000402ea00020037003a
:10131c00edfc0700000278006123b9002440800036
:10132c0035408000e00f5200e08f5a0002003d0073
:10133c0060021200e0821a00840f5300858f5b005c
:10134c0017003500edfc070000027800e00f52009a
:10135c0004003d00e9fc0700000278000402ea00ea
:10136c0002003700e5fc0700000278006123b90099
:10137c000440800015408000e00f5200e08f5a00be
:10138c0002003d0060021200e0821a00840f53003c
:10139c00858f5b000200350014002000010037002f
:1013ac000002eb00040078000080fa000000060048
:1013bc000400fa00c42b2000040f7800c42b20007a
:1013cc0014079800120020001e00be0096fe0700b5
:1013dc0061fc07000080fa00000006000000fa0023
:1013ec00f3ff07008000eb00c012200079ff07001c
:1013fc00a3ff0700ffff37000000fa00c4c2a900da
:10140c00c4e2a900c522a900c582a900c542a90051
:10141c00c5a2a900c5c2a900c5e2a900c0c2a90005
:10142c00c0e2a900c122a900c182a900c142a90041
:10143c00c1a2a900c1c2a900c1e2a900d022a90081
:10144c00cc22a900d042a900cc42a900e2e2a9001a
:10145c00e302a900e802a900e822a900dee2a90043
:10146c00df02a900e402a900e422a900e202a9001b
:10147c00de02a900d602a900d622a900d642a900f4
:10148c00d662a900d682a900d6a2a900d6c2a9000c
:10149c00d6e2a900d202a900d222a900d242a90008
:1014ac00d262a900d282a900d2a2a900d2c2a900fc
:1014bc00d2e2a900d1a2a900cda2a900e842a900bc
:1014cc00e862a900e442a900e462a900de22a800b7
:1014dc00dec2a800e4c2a800e4e2a800e502a8006d
:1014ec00e522a800d302a800d322a800d342a8006a
:1014fc00d362a800d382a800d3a2a800d3c2a800ac
:0c150c00d3e2a8000080fa0000000600f6
:020000040000fa
:101518000008000012000000000000001e08000083
:101528000200000002000000010000001208000094
:0c1538000c00000000000000000000009b
:020000040000fa
:0200000401f009
:04000000e6bf000057
:020000040000fa
:0200000401f009
:04000400ff7f00007a
:020000040000fa
:0200000401f009
:040008007fff000076
:020000040000fa
:0200000401f009
:04001400ffff0000ea
:00000001FF
