:020000040000fa
:080000000001040000000000f3
:020000040000fa
:100008009e0300009e0300009e0300009e03000064
:100018009e0300009e0300009e0300009e03000054
:100028009e0300009e0300009e0300009e03000044
:100038009e0300009e0300009e0300008808000045
:100048009e0300009e0300009e0300009e03000024
:100058009e0300009e0300009e0300009e03000014
:100068009e0300009e0300009e0300009e03000004
:100078009e030000260200009a0100009e03000073
:100088009e0300009e0300009e0300009e030000e4
:100098009e0300009e0300009e0300009e030000d4
:1000a8009e0300009e0300009e0300009e030000c4
:1000b8009e0300009e0300009e0300009e030000b4
:1000c8009e0300009e0300009e0300009e030000a4
:1000d8009e0300009e0300009e0300009e03000094
:1000e8009e0300009e0300009e0300009e03000084
:0800f8009e0300009e030000be
:020000040000fa
:100108009e0300009e0300009e0300009e03000063
:100118009e0300009e0300009e0300009e03000053
:100128009e0300009e0300009e0300009e03000043
:100138009e0300009e0300009e0300008808000044
:100148009e0300009e0300009e0300009e03000023
:100158009e0300009e0300009e0300009e03000013
:100168009e0300009e0300009e0300009e03000003
:100178009e030000260200009a0100009e03000072
:100188009e0300009e0300009e0300009e030000e3
:100198009e0300009e0300009e0300009e030000d3
:1001a8009e0300009e0300009e0300009e030000c3
:1001b8009e0300009e0300009e0300009e030000b3
:1001c8009e0300009e0300009e0300009e030000a3
:1001d8009e0300009e0300009e0300009e03000093
:1001e8009e0300009e0300009e0300009e03000083
:0801f8009e0300009e030000bd
:020000040000fa
:100200002f8220000e7f22000e01880000000000d7
:10021000000020000000e000020032000001200089
:10022000200288000c00070080bc20000100200094
:1002300011000700000020000000e0000200320072
:1002400000000200000000002e0b02000000000071
:100250000040da000000fe004440a9000000200039
:100260000000e0000300320000002000a001880030
:100270004440a8000000060091018800800078003a
:100280000000eb0015003700e280400032a0b4000f
:100290009101ba00e280400032a0b4009102ba009d
:1002a000e280400032a0b4000002eb00472bde00e9
:1002b000f507b200602ce10004003a000059eb00a1
:1002c0008301e900fdff3e00040037006128e100e2
:1002d000010032000082eb00040007001101ba00a7
:1002e0000200e000e8ff3a00000006003159ba00c1
:1002f0008301e9000c0032002159ba008301e900b2
:10030000080032000400e00003003a00e2804000f0
:1003100032a0b400f5ff370011d9ba008301e9001b
:10032000faff3a008100e800e180400032a0b4000a
:1003300000000600849fbe00869fbe003400f800c7
:1003400004002000a40188000000fa0086c0a90073
:10035000b4408000e00f52000c003400d440800014
:100360000402e800d4408800044180000402e9004f
:100370000441880004418000e00f52000e003d005f
:1003800034002000044188000b003700d440800076
:100390000402e900d4408800044180000402e8001f
:1003a0000441880004418000e30f52000200340041
:1003b0000002eb000441880004418000cfa2de006f
:1003c0003600200007002000860f5200878f5a0059
:1003d00019003e00046001000300370007003700e9
:1003e0000b0037000f003700d602a900d622a80064
:1003f000d642a900d662a8000f003700d602a90095
:10040000d622a800d642a800d662a9000a0037006a
:10041000d602a800d622a900d642a800d662a9001a
:1004200005003700d602a800d622a900d642a900ae
:10043000d662a800000000000080fa003400f90035
:100440004f03be004f02be0000400600849fbe0066
:10045000869fbe003400f80004002000a40188003c
:100460000000fa0086a0a900c4408000e00f5200fe
:100470000c003d00e44080000402e900e4408800f4
:10048000f44080000402e900f4408800f440800059
:10049000e00f52000e003d0034002000f4408800c0
:1004a0000b003700e44080000402e800e4408800cc
:1004b000f44080000402e800f4408800f44080002a
:1004c000e30f5200020034000002eb00f440880009
:1004d000f4408000cfa2de0036002000070020009c
:1004e000860f5200878f5a0019003e0004600100f9
:1004f00003003700070037000b0037000f003700fc
:10050000d682a900d6a2a800d6c2a900d6e2a80029
:100510000f003700d682a900d6a2a800d6c2a80034
:10052000d6e2a9000a003700d682a800d6a2a90008
:10053000d6c2a800d6e2a90005003700d682a800de
:10054000d6a2a900d6c2a900d6e2a80000000000e9
:100550000080fa003400f9004f03be004f02be00d5
:10056000004006000000fa00440407000080fa0082
:10057000000006000200fa00000f78001e0278005a
:10058000e00f520006003a0021e1a900d602a900be
:10059000d622a900d642a900d662a9001f003700c2
:1005a00021e1a9001e027800b44088000002eb009f
:1005b00004098800040980000440a0000450a00041
:1005c000040988000002eb00c40888001e027800bd
:1005d00004f0a7000402ea00cfa2de000400be007f
:1005e000d80007000002be000401be000000200089
:1005f00011762400530007000002be000400be0074
:10060000b50007000002be0004027800e40888007c
:1006100086c0a9008ec0a80021e1a8000080fa00d1
:10062000000006000200fa00000f78001e027800a9
:10063000e00f520006003a001fe1a900d682a9008f
:10064000d6a2a900d6c2a900d6e2a9001f00370091
:100650001fe1a9001e027800c44088000002eb00e0
:10066000f4088800f40880000440a0000450a000b2
:10067000f40888000002eb00a40888001e0278003d
:1006800004f0a7000402ea00cfa2de000400be00ce
:10069000ac0007000002be000401be000000200004
:1006a00011762400270007000002be000400be00ef
:1006b000890007000002be0004027800d408880008
:1006c00086a0a9008ea0a8001fe1a8000080fa0063
:1006d000000006000000fa00d4408000040078000a
:1006e0000080fa00000006000200fa00000f780007
:1006f0001027fc001e027800d44088000200fc0095
:100700000080fa00000006000000fa00e4408000cb
:10071000040078000080fa00000006000200fa00e1
:10072000000f78001027fc001e027800e4408800cb
:100730000200fc000080fa00000006000040da0021
:100740000000fe00889fbe008a9fbe008c1f7800bc
:10075000bc000700c300330003866c006450e10056
:100760002e0032006420e100330032006150e100cd
:100770002f0032006120e1003100320085855500f4
:10078000eb07b00009002000080420000500370036
:100790000804440089844c000a0031000603430029
:1007a00087834b000001530081815b00f8ff330019
:1007b0000203be000800a0000804440089844c0025
:1007c000f6ff3900c639dd008301730001003200f5
:1007d000130020008904d1000884d3000998a300e5
:1007e000050032000800a7000300a0008904d10022
:1007f0000884d3008b05e8008904d1000884d30065
:100800000001eb000281d2005300070001f0a100bb
:100810000cf0a70001f0a0009b0037006420e1006d
:100820009d0032000801be000200be00f7ff370045
:100830006120e100980032006000b800f3ff37004b
:100840000000200001f82700f0ff3700f4ff2f0020
:10085000c80037000001be00650007000470a70053
:1008600003f0a1006509b100160032000d0035004b
:100870006828e10006003500f0ff2f00f1ff270097
:100880000300e00013003b00010028000000050009
:1008900000004000818048008502e900fcff3a002a
:1008a00008003700f88f420002003c008000eb0097
:1008b000000005008100d1000080d3008502e8001f
:1008c000fcff3a000300e00002003b006000100063
:1008d000e0801800000006000001be004400070090
:1008e0000470a70003f0a10003f8a30013003a006e
:1008f0006509b10010003200090035006928e100e7
:100900000200350001002800000005000000400042
:10091000818048008502e900fcff3a0000000600e3
:10092000f88f4200050035008100d1000080d3001f
:100930008502e800fcff3a00000006008000eb00a2
:10094000000005004f89de0082017800a400370016
:1009500004002000870037008100200061805500de
:100960000b003d000b00200061fe2f000100e100a4
:100970001d00340082817100610164008904d1008e
:100980000884d3000000e800faff3a00710020005c
:100990006100640003007000020060000900320082
:1009a00061044400e0844c000988a5000500320081
:1009b0008b05e8006808e10002003a008904d100d4
:1009c0000884d300f20f20000258e10005003d002a
:1009d000c75ddd00f907b200898075000800780066
:1009e000000006000bf827008b00780000000500cf
:1009f000c70ade00f107b200f50fb20008003200ae
:100a0000e1cf4200020032000170a0002400050086
:100a1000810f700001003200040805004400050049
:100a2000810f700002003a00140005008502e90001
:100a30000000400081c04800fcff3b000170a000a6
:100a4000240005000004be00e9ff07000003be000b
:100a50000405be000200be00e5ff0700844f7500dc
:100a6000000006000200be006450e10005003600f0
:100a70006420e100020036000968a30001003a008a
:100a80000800be000160a0004f0678004f05be00c0
:100a90004f04be0000000600f0ff2f00f1ff27000a
:100aa000f9ff3700889fbe008a9fbe008c1f780028
:100ab000e4ff0700ebff330003866c006450e100a5
:100ac000240032006420e100270032006150e10080
:100ad000220032006120e100210032008b854200bb
:100ae000eb07b1000134b800003ab8000804420036
:100af00089844a00013ab8000030b800888040007c
:100b000009014a00040033000000400081804800d1
:100b1000020149008b05e900c909dd00830170006d
:100b20000100320013002000c814de004814dd006c
:100b30004709de001200b200c808de000884700019
:100b400085ff070001f0a1000cf0a70001f0a00054
:100b5000cdff37006120e100cfff32000801be0069
:100b60000200be00f7ff37006150e100fcff3a00d1
:100b7000c9ff3700889fbe008a9fbe00841f78008f
:100b8000b0ff07004f00780011003300f0ff2f0086
:100b9000838f6c0006003b00040565000a00a70077
:100ba0000800370009f0a6001000200008003700f8
:100bb000820f5400838f5c00030039001000200076
:100bc00001003e000000200009f0a7000000ea003c
:100bd0004f05be004f04be000000e000000006000c
:100be000881f7800030478000300e00007003d0040
:100bf00060001000e080180060011900e081190019
:100c000002003b0001f02d00030037000400070044
:100c100008f0a70001f0a0004f04780000000600d3
:100c2000889fbe008a9fbe0000827000040271008f
:100c300004827100260032000004be000200be00e3
:100c40006011b8006b092000950220000182cf00de
:100c50000a0039000541b1000082cf0007003900c9
:100c60000541b1000982cf00040039000541b100ff
:100c70000882cf00010039000541b1000542520051
:100c8000120032000a003b008281710061016400a1
:100c90008100d1000080d3008984d3000884d30070
:100ca0008b05e8000442e800f7ff3a000700370030
:100cb0000804440089844c000000480081804800fa
:100cc0008b05e9000442e900f9ff3a0022ff070022
:0c0cd0004f05be004f04be0000000600ef
:020000040000fa
:100cdc000400fa00008fbe001e0278008402780027
:100cec0005f0a7008502ea005440800004f0a7003c
:100cfc000402ea00848f52000b003c001e0290009c
:100d0c008402780005f0a7008502ea0064408000a8
:100d1c0004f0a7000402ea00848f520002003c0099
:100d2c0014002000010037000002eb0004007800e2
:100d3c000080fa00000006000000fa0062fe0700c6
:100d4c0000027800e00f520004003d005efe070038
:100d5c00000278000402ea00020037005afe070085
:100d6c00000278006123b9002440800035408000e7
:100d7c00e00f5200e08f5a0002003d0060021200aa
:100d8c00e0821a000400be0094408000cfa2de0076
:100d9c000402500085825800840f5300858f5b003d
:100dac002200350055fe070000027800e00f5200cb
:100dbc0004003d0051fe0700000278000402ea0026
:100dcc00020037004dfe0700000278006123b900d5
:100ddc000440800015408000e00f5200e08f5a0064
:100dec0002003d0060021200e0821a000400be0006
:100dfc0094408000cfa2de0004025000858258008f
:100e0c00840f5300858f5b00080035007440800010
:100e1c00e00f52000500340084408000e00f5200c7
:100e2c000200340014002000010037000002eb0027
:100e3c00040078000080fa00000006000400fa00ac
:100e4c00881f7800008fbe0018c0b300a2702d0060
:100e5c0033c223001e00be0079fe0700000278009a
:100e6c00e00f520001003d000044eb00e04f540045
:100e7c0002003200340020002800370018c0b300f4
:100e8c00f226210033a823001e00be006cfe0700d2
:100e9c0000027800e00f520001003d000044eb001e
:100eac00e04f540002003200240020001b003700e9
:100ebc0018c0b30072712b00138d23001e00be00ee
:100ecc005ffe070000027800e00f520001003d00b9
:100edc000044eb00e04f54000200320014002000ec
:100eec000e00370018c0b300c25a2c0073722300d6
:100efc001e00be0052fe070000027800e00f5200f8
:100f0c0001003d000044eb00e04f540002003200b1
:100f1c000002eb00010037000082eb0004007800b7
:100f2c004f0478000080fa00000006001200fa005e
:100f3c00889fbe00500798006107980072079800c0
:100f4c00030f98000002eb00940888000002eb00ed
:100f5c005408880018c0b3006011b8007e009000df
:100f6c008e08900077fe070000027800e00f520018
:100f7c0001003a000044eb00084278000404a2008f
:100f8c00e04f5200080032000828a90094088000a5
:100f9c000440a0000450a00094088800843e200067
:100fac0074088800510037000828a8005e029000e1
:100fbc00ee02900054408800654088000002eb006f
:100fcc00744088000002eb0084408800de02900030
:100fdc006e02900004824200cfa2de000400be002c
:100fec0055fe07000002be00020020000300240092
:100ffc000400be00d0fd07000002be00048fbe003e
:10100c001e01be007e0090008e089000cafd0700f5
:10101c000002be0024079800350798002e009000af
:10102c00be00900085ff070000027800440798007e
:10103c004e02900004427800634262000482fb007e
:10104c00630262004422dd0096088000f5fc2f004c
:10105c008502630005027200940888004e0290001d
:10106c00cfa2de000400be0033fe07000002be006b
:10107c000401be000000200011b62400aefd0700e4
:10108c000002be000404be0002002000030a24007b
:10109c002e009000be009000a7fd07000002be00cd
:1010ac000401be000800be007bfe07000002be006b
:1010bc000400be0005fe07000002be00040278001a
:1010cc00740888007e0190008e0990001e00be00fe
:1010dc0071fe07000002be000400be00dafd07002e
:1010ec000002be00040278009440880084e0a9004d
:1010fc008ce0a80013e1a8004f04be000080fa00a9
:10110c00000006003600f800809fbe00829fbe00e3
:10111c00849fbe00869fbe003400f80000002000b3
:10112c00a00188000000fa0084e0a900444080007f
:10113c0062026200e00f52002e003200a4408000d8
:10114c00e00f520010003a00704080008140800097
:10115c00dffe070000027800e00f52000a003200a8
:10116c007440800065024200744088008440800016
:10117c0065024200844088007040800081408000fd
:10118c00c000070005003700a4408000e00f5200ab
:10119c0002003a0014002000a4408800e6fe07007c
:1011ac0000027800e00f52000c00320024002000f6
:1011bc00a44088007440800065025200744088008e
:1011cc00844080006502520084408800704080009a
:1011dc0081408000ab00070014003700a440800061
:1011ec00e20f520011003a00c4e2a8000808a9005e
:1011fc000e003700cc0007000002780004f0a700b6
:10120c000402ea000402e9004f22de0004427800e6
:10121c000482fb006102620046408000e5ff2f0063
:10122c008502630005027200444088000080fa00c9
:10123c003400f9004f03be004f02be004f01be0048
:10124c004f00be003600f900004006000800fa000e
:10125c00008fbe0022079800330798000808a800ea
:10126c000000eb001dfd07000000eb0028fd07004f
:10127c001e027800cfa2de00244088003540880092
:10128c001e029000cfa2de000440880015408800aa
:10129c002e009000be0090007a00070000000000b5
:1012ac004440800061026200e00f5200fcff3a00f3
:1012bc000080fa00000006000c00fa0050079800ad
:1012cc005e029000e00f520015003d005e0290009f
:1012dc000402ea00cfa2de000400be0096fd070067
:1012ec000002be0002be2400134a24000400be000b
:1012fc00e9fd07000002be0002002000433b240071
:10130c000400be000cfd07000002be000400be007d
:10131c004dfd07000002be000402780013003700e8
:10132c005e029000cfa2de000400be0082fd07002a
:10133c000002be0002be2400134a24000400be00ba
:10134c00d5fd07000002be0002002000433b240034
:10135c000400be00f8fc07000002be000400be0042
:10136c0039fd07000002be0004027800040f78006b
:10137c001e027800140798001e02780024079800bb
:10138c005e029000e00f520005003d0004e72f00c4
:10139c003407980004192000440798000400370013
:1013ac00041920003407980004e72f004407980024
:1013bc003e019000ce0190001e009000ae00900007
:1013cc00a2ff07000080fa00000006000e00fa00e1
:1013dc0050079800610798005e029000cfa2de00d3
:1013ec000400be0054fd07000002be0002002000f5
:1013fc00830f24000400be00a7fd07000002be00fe
:10140c000400be0010fd07000002be00040f7800af
:10141c001e027800140798009e0278002507980099
:10142c004440800062026200e00f520005003a0066
:10143c000419200034079800041920004407980070
:10144c000400370074408000854080003407980009
:10145c00450798006e029000e00f52000200320027
:10146c006e00900094ff07003e019000ce019000aa
:10147c001e009000ae00900074ff07000080fa0080
:10148c00000006000400fa00008fbe001e02780067
:10149c000400780034fc07001e0290000400780061
:1014ac005dfc07000080fa00000006000400fa0052
:1014bc001fe1a90021e1a900d682a900d6a2a900aa
:1014cc00d6c2a900d6e2a900d602a900d622a9004c
:1014dc00d642a900d662a900046c2f0024168800fd
:1014ec006022b800048fbe00050037000000000029
:1014fc0014002000050020001e0f42005e974a00d9
:10150c00f47b2200950020001e03be00840f5300c4
:10151c00858f5b00f5ff34000002eb002416880079
:10152c000080fa00000006000000fa0066fc0700cc
:10153c0000027800e00f520004003d0062fc07003e
:10154c00000278000402ea00020037005efc07008b
:10155c00000278006123b9002440800035408000ef
:10156c00e00f5200e08f5a0002003d0060021200b2
:10157c00e0821a00840f5300858f5b001700350042
:10158c005efc070000027800e00f520004003d00f2
:10159c005afc0700000278000402ea00020037003f
:1015ac0056fc0700000278006123b900044080005b
:1015bc0015408000e00f5200e08f5a0002003d0001
:1015cc0060021200e0821a00840f5300858f5b00ca
:1015dc000200350014002000010037000002eb006f
:1015ec00040078000080fa00000006000a00fa00ef
:1015fc00400798004e029000e00f52000a003200a3
:10160c00c42b200024079800c42b2000340798001a
:10161c000200200003f823002e009000be00900072
:10162c0042fe0700070037000002eb00040f7800b1
:10163c000002eb00140798006011b8001e00be00f9
:10164c003afe0700c4fb07000080fa000000060009
:10165c000000fa0010002000e4ff07008000eb00ff
:10166c000019200059ff070090ff0700ffff37000b
:10167c000000fa00c4c2a900c4e2a900c522a90056
:10168c00c582a900c542a900c5a2a900c5c2a9006e
:10169c00c5e2a900c0c2a900c0e2a900c122a900ec
:1016ac00c182a900c142a900c1a2a900c1c2a9005e
:1016bc00c1e2a900d022a900cc22a900d042a900e5
:1016cc00cc42a900e2e2a900e302a900e802a900c9
:1016dc00e822a900dee2a900df02a900e402a900c9
:1016ec00e422a900e202a900de02a900d602a900a8
:1016fc00d622a900d642a900d662a900d682a9009a
:10170c00d6a2a900d6c2a900d6e2a900d202a9008d
:10171c00d222a900d242a900d262a900d282a90089
:10172c00d2a2a900d2c2a900d2e2a900d1a2a900da
:10173c00cda2a900e842a900e862a900e442a900f0
:10174c00e462a900de22a800dec2a800e4c2a80060
:10175c00e4e2a800e502a800e522a800d302a80054
:10176c00d322a800d342a800d362a800d382a80039
:10177c00d3a2a800d3c2a800d3e2a8000080fa002c
:04178c000000060053
:020000040000fa
:10179000000800001600000000000000160800000d
:0c17a0000c000000000000000000000031
:020000040000fa
:0200000401f009
:04000000e6bf000057
:020000040000fa
:0200000401f009
:04000400ff7f00007a
:020000040000fa
:0200000401f009
:040008007fff000076
:020000040000fa
:0200000401f009
:04001400ffff0000ea
:00000001FF
