:020000040000fa
:080000000001040000000000f3
:020000040000fa
:100008009e0300009e0300009e0300009e03000064
:100018009e0300009e0300009e0300009e03000054
:100028009e0300009e0300009e0300009e03000044
:100038009e0300009e0300009e0300007c0a00004f
:100048009e0300009e0300009e0300009e03000024
:100058009e0300009e0300009e0300009e03000014
:100068009e0300009e0300009e0300009e03000004
:100078009e030000260200009a0100009e03000073
:100088009e0300009e0300009e0300009e030000e4
:100098009e0300009e0300009e0300009e030000d4
:1000a8009e0300009e0300009e0300009e030000c4
:1000b8009e0300009e0300009e0300009e030000b4
:1000c8009e0300009e0300009e0300009e030000a4
:1000d8009e0300009e0300009e0300009e03000094
:1000e8009e0300009e0300009e0300009e03000084
:0800f8009e0300009e030000be
:020000040000fa
:100108009e0300009e0300009e0300009e03000063
:100118009e0300009e0300009e0300009e03000053
:100128009e0300009e0300009e0300009e03000043
:100138009e0300009e0300009e0300007c0a00004e
:100148009e0300009e0300009e0300009e03000023
:100158009e0300009e0300009e0300009e03000013
:100168009e0300009e0300009e0300009e03000003
:100178009e030000260200009a0100009e03000072
:100188009e0300009e0300009e0300009e030000e3
:100198009e0300009e0300009e0300009e030000d3
:1001a8009e0300009e0300009e0300009e030000c3
:1001b8009e0300009e0300009e0300009e030000b3
:1001c8009e0300009e0300009e0300009e030000a3
:1001d8009e0300009e0300009e0300009e03000093
:1001e8009e0300009e0300009e0300009e03000083
:0801f8009e0300009e030000bd
:020000040000fa
:100200004f8220000e7f22000e01880000000000b7
:10021000000020000000e000020032000001200089
:10022000200288000c000700a02921000100200006
:1002300011000700000020000000e0000200320072
:100240000000020000000000340d02000000000069
:100250000040da000000fe004440a9000000200039
:100260000000e0000300320000002000a001880030
:100270004440a8000000060091018800800078003a
:100280000000eb0015003700e280400032a0b4000f
:100290009101ba00e280400032a0b4009102ba009d
:1002a000e280400032a0b4000002eb00472bde00e9
:1002b000f507b200602ce10004003a000059eb00a1
:1002c0008301e900fdff3e00040037006128e100e2
:1002d000010032000082eb00040007001101ba00a7
:1002e0000200e000e8ff3a00000006003159ba00c1
:1002f0008301e9000c0032002159ba008301e900b2
:10030000080032000400e00003003a00e2804000f0
:1003100032a0b400f5ff370011d9ba008301e9001b
:10032000faff3a008100e800e180400032a0b4000a
:1003300000000600849fbe00869fbe003400f800c7
:1003400004002000a40188000000fa0086c0a90073
:10035000a4408000e00f52000c003400c440800034
:100360000402e800c4408800f44080000402e90070
:10037000f4408800f4408000e00f52000e003d0081
:1003800034002000f44088000b003700c440800097
:100390000402e900c4408800f44080000402e80040
:1003a000f4408800f4408000e30f52000200340063
:1003b0000002eb00f4408800f4408000cfa2de0091
:1003c0003600200007002000860f5200878f5a0059
:1003d00019003e00046001000300370007003700e9
:1003e0000b0037000f003700d602a900d622a80064
:1003f000d642a900d662a8000f003700d602a90095
:10040000d622a800d642a800d662a9000a0037006a
:10041000d602a800d622a900d642a800d662a9001a
:1004200005003700d602a800d622a900d642a900ae
:10043000d662a800000000000080fa003400f90035
:100440004f03be004f02be0000400600849fbe0066
:10045000869fbe003400f80004002000a40188003c
:100460000000fa0086a0a900b4408000e00f52000e
:100470000c003d00d44080000402e900d440880014
:10048000e44080000402e900e4408800e440800089
:10049000e00f52000e003d0034002000e4408800d0
:1004a0000b003700d44080000402e800d4408800ec
:1004b000e44080000402e800e4408800e44080005a
:1004c000e30f5200020034000002eb00e440880019
:1004d000e4408000cfa2de003600200007002000ac
:1004e000860f5200878f5a0019003e0004600100f9
:1004f00003003700070037000b0037000f003700fc
:10050000d682a900d6a2a800d6c2a900d6e2a80029
:100510000f003700d682a900d6a2a800d6c2a80034
:10052000d6e2a9000a003700d682a800d6a2a90008
:10053000d6c2a800d6e2a90005003700d682a800de
:10054000d6a2a900d6c2a900d6e2a80000000000e9
:100550000080fa003400f9004f03be004f02be00d5
:10056000004006000000fa00ad0707000080fa0016
:10057000000006000200fa00000f78001e0278005a
:10058000e00f520006003a0021e1a900d602a900be
:10059000d622a900d642a900d662a9001f003700c2
:1005a00021e1a9001e027800a44088000002eb00af
:1005b00004098800040980000440a0000450a00041
:1005c000040988000002eb00c40888001e027800bd
:1005d00004f0a7000402ea00cfa2de000400be007f
:1005e000a30107000002be000401be0000002000bd
:1005f000117624001c0107000002be000400be00aa
:10060000800107000002be0004027800e4088800b0
:1006100086c0a9008ec0a80021e1a8000080fa00d1
:10062000000006000200fa00000f78001e027800a9
:10063000e00f520006003a001fe1a900d682a9008f
:10064000d6a2a900d6c2a900d6e2a9001f00370091
:100650001fe1a9001e027800b44088000002eb00f0
:10066000f4088800f40880000440a0000450a000b2
:10067000f40888000002eb00a40888001e0278003d
:1006800004f0a7000402ea00cfa2de000400be00ce
:10069000770107000002be000401be000000200038
:1006a00011762400f00007000002be000400be0026
:1006b000540107000002be0004027800d40888003c
:1006c00086a0a9008ea0a8001fe1a8000080fa0063
:1006d000000006000000fa00c4408000040078001a
:1006e0000080fa00000006000200fa00000f780007
:1006f0001027fc001e027800c44088000200fc00a5
:100700000080fa00000006000000fa00d4408000db
:10071000040078000080fa00000006000200fa00e1
:10072000000f78001027fc001e027800d4408800db
:100730000200fc000080fa00000006000040da0021
:100740000000fe00320020005e00370003f0a2002f
:10075000889fbe008a9fbe008c1f7800840107001e
:100760008b0133006450e1004f0032006420e1004f
:100770005200320003826c0007003b000905d000e4
:100780000306d000820f54000c065d000200390001
:100790000200320089017800030678008582550046
:1007a00004003d000003fd008103fd008502ea0016
:1007b0008b854200840f720002003b006000100035
:1007c000e08018006011b8000005eb007a28e10015
:1007d0000a00390006007800c75ddd00f707b200a7
:1007e000878075002d003700828171000a01780032
:1007f000610560008180d1000080d3008502e9009e
:10080000f9ff3b00060440008784480002003b00db
:1008100060041400e0841c000988a3000700320073
:100820008a81710082817100610164008904d100b4
:100830000884d3008b05e800170037000978a3006f
:1008400013003a000b00e000130034008b05e900b0
:100850000804440089844c000a4474000978a30009
:100860000d003a000b00e000070034008b05e900a2
:100870000804440089844c0001003a000b00200069
:100880000978a300f7ff32000001eb0002003700f7
:10089000828171000a017800fa0007000cf0a700bd
:1008a00001f0a000430137006420e10002003a009b
:1008b000838f6c00430133000801be000200be00bc
:1008c0003c013700889fbe008a9fbe008c9fbe00ff
:1008d0000206780001f0a7000cf0a0000004be00a2
:1008e0000e0107000800be006420e1000700390087
:1008f00002003a00f1ff2700f0ff2f000160a00086
:1009000012022000124188005100370009f0a100b6
:100910000800be000200200003f823009600070034
:10092000f4ff3c000800be000200200003982300f2
:100930008f0007000800be003000350002002000d4
:1009400003f023008c00070005003c000800be00f7
:100950000801be001e0107000005be000e003700a2
:100960000c10a2000000200001f823000801be00c6
:1009700076ff07000200200003f0230014010700a7
:100980000005be00460107000200200003002c0005
:100990000f0107000004be000a00be00b2d028000c
:1009a000130b2c006aff07000a01be0008010700b4
:1009b000020f2500330b240065ff0700809fbe0057
:1009c0000a00be005206220013f02b0000010700af
:1009d000b2662100f3f623005dff07000a01be00a6
:1009e000fb0007004f01be001f0007000801be000a
:1009f000f70007000801be0055ff07000c00a70024
:100a000007003700b2fd200093fc23000c10a70064
:100a10004fff07000cf0a70001f0a2000c00370008
:100a20000cf0a7000200370001f0a200040037001c
:100a3000b2fd2000930424000c10a6000300370030
:100a4000b2fd200093fc23000c10a70040ff07001c
:100a50004f06be004f05be004f04be00000006005a
:100a60000001eb0097ff3700889fbe008a9fbe0001
:100a70008c1f7800be000700c500330003866c00a1
:100a80006450e1002e0032006420e10033003200a7
:100a90006150e1002f0032006120e100310032009e
:100aa00085855500eb07b0000900200008042000f0
:100ab000050037000804440089844c000a00310016
:100ac0000603430087834b000001530081815b00d4
:100ad000f8ff33000203be000800a0000804440031
:100ae00089844c00f6ff3900c639dd0083017300ac
:100af00001003200130020008904d1000884d300d3
:100b00000998a300050032000800a7000300a00018
:100b10008904d1000884d3008b05e8008904d10042
:100b20000884d3000001eb000281d20055000700c9
:100b300001f0a1000cf0a70001f0a0009d0037001b
:100b40006420e1009f0032000801be000200be00e8
:100b5000f7ff37006120e1009a0032006000b80022
:100b6000f3ff37000000200001f82700f0ff3700f6
:100b700014002000ff003700f4ff2f00fd003700b5
:100b80000001be00650007000470a70003f0a1008b
:100b90006509b100160032000d0035006828e1003b
:100ba00006003500f0ff2f00f1ff27000300e000f2
:100bb00013003b0001002800000005000000400079
:100bc000818048008502e900fcff3a0008003700f8
:100bd000f88f420002003c008000eb00000005009e
:100be0008100d1000080d3008502e800fcff3a00bc
:100bf0000300e00002003b0060001000e0801800ed
:100c0000000006000001be00440007000470a700b9
:100c100003f0a10003f8a30013003a006509b10036
:100c200010003200090035006928e100020035009b
:100c300001002800000005000000400081804800fd
:100c40008502e900fcff3a0000000600f88f420030
:100c5000050035008100d1000080d3008502e80046
:100c6000fcff3a00000006008000eb0000000500d9
:100c70004f89de0082017800d9003700040020008f
:100c8000bc00370081002000618055000b003d0052
:100c90000b00200061fe2f000100e1001d00340068
:100ca00082817100610164008904d1000884d3004d
:100cb0000000e800faff3a007100200061006400c3
:100cc000030070000200600009003200610444006b
:100cd000e0844c000988a500050032008b05e8007f
:100ce0006808e10002003a008904d1000884d300ba
:100cf000f20f20000258e10005003d00c75ddd0055
:100d0000f907b2008980750008007800000006002d
:100d10000bf827008b00780000000500c70ade00f2
:100d2000f107b200f50fb20008003200e1cf420037
:100d3000020032000170a00024000500810f700045
:100d4000010032000408050044000500810f700016
:100d500002003a00140005008502e900000040008e
:100d600081c04800fcff3b000170a000240005008a
:100d70000004be00e9ff07000003be000405be003a
:100d80000200be00e5ff0700844f7500000006006a
:100d90000200be006450e100050036006420e1005e
:100da000020036000968a30001003a000800be00f6
:100db0000160a0004f0678004f05be004f04be0042
:100dc00000000600f0ff2f00f1ff2700f9ff3700b9
:100dd000889fbe008a9fbe008c1f7800e4ff07003a
:100de000ebff330003866c006450e1002400320006
:100df0006420e100270032006150e100220032004f
:100e00006120e100210032008b854200eb07b10038
:100e10000134b800003ab8000804420089844a004e
:100e2000013ab8000030b8008880400009014a004b
:100e300004003300000040008180480002014900a6
:100e40008b05e900c909dd00830170000100320053
:100e500013002000c814de004814dd004709de003e
:100e60001200b200c808de000884700085ff070089
:100e700001f0a1000cf0a70001f0a000cdff3700a9
:100e80006120e100cfff32000801be000200be0079
:100e9000f7ff37006150e100fcff3a00c9ff37005f
:100ea000889fbe008a9fbe008c1f78000004be0091
:100eb0009aff07000478a30026003a006120e100b1
:100ec0002500320009f8a30025003a006420e10063
:100ed00021003200f507b1000508a300020032002e
:100ee00000004000818048006044b80003102000ea
:100ef00002002000000040008180480008054400f6
:100f000089854c000a0541008b8549000a0550007f
:100f10008b855800030033000a00be0002047400f1
:100f2000838474008301d1000281d300830f710098
:100f3000f0ff3a008904d1000884d3006001490021
:100f400082017800c1adde00fb07b0004dff070055
:100f500098ff37000960a0000800be0095ff370029
:100f60001202200012418800f0ff2f00f1ff27003d
:100f700090ff3700889fbe008a9fbe00841f7800c4
:100f80007bff07004f00780011003300f0ff2f00b7
:100f9000838f6c0006003b00040565000a00a70073
:100fa0000800370009f0a6001000200008003700f4
:100fb000820f5400838f5c00030039001000200072
:100fc00001003e000000200009f0a7000000ea0038
:100fd0004f05be004f04be000000e0000000060008
:100fe000881f7800030478000300e00007003d003c
:100ff00060001000e080180060011900e081190015
:1010000002003b0001f02d00030037000400070040
:1010100008f0a70001f0a0004f04780000000600cf
:10102000889fbe008a9fbe0000827000040271008b
:1010300004827100260032000004be000200be00df
:101040006011b8006b092000950220000182cf00da
:101050000a0039000541b1000082cf0007003900c5
:101060000541b1000982cf00040039000541b100fb
:101070000882cf00010039000541b100054252004d
:10108000120032000a003b0082817100610164009d
:101090008100d1000080d3008984d3000884d3006c
:1010a0008b05e8000442e800f7ff3a00070037002c
:1010b0000804440089844c000000480081804800f6
:1010c0008b05e9000442e900f9ff3a00edfe070054
:0c10d0004f05be004f04be0000000600eb
:020000040000fa
:1010dc000400fa00008fbe001e0278008402780023
:1010ec0005f0a7008502ea005440800004f0a70038
:1010fc000402ea00848f52000b0035001e0290009f
:10110c008402780005f0a7008502ea0064408000a4
:10111c0004f0a7000402ea00848f5200020035009c
:10112c0014002000010037000002eb0004007800de
:10113c000080fa00000006000000fa0062fd0700c3
:10114c0000027800e00f520004003d005efd070035
:10115c00000278000402ea00020037005afd070082
:10116c00000278006123b9002440800035408000e3
:10117c00e00f5200e08f5a0002003d0060021200a6
:10118c00e0821a000400be0094408000cfa2de0072
:10119c000402500085825800840f5300858f5b0039
:1011ac001c00350055fd070000027800e00f5200ce
:1011bc0004003d0051fd0700000278000402ea0023
:1011cc00020037004dfd0700000278006123b900d2
:1011dc000440800015408000e00f5200e08f5a0060
:1011ec0002003d0060021200e0821a000400be0002
:1011fc0094408000cfa2de0004025000858258008b
:10120c00840f5300858f5b00020035001400200012
:10121c00010037000002eb00040078000080fa00a7
:10122c00000006000400fa00881f7800008fbe0042
:10123c0018c0b300a2702d0033c223001e00be00e4
:10124c004afe070000027800e00f520001003d004a
:10125c000044eb00e04f5400020032003400200048
:10126c002800370018c0b300f226210033a8230051
:10127c001e00be003dfe070000027800e00f520089
:10128c0001003d000044eb00e04f5400020032002e
:10129c00240020001b00370018c0b30072712b0013
:1012ac00138d23001e00be0030fe070000027800e4
:1012bc00e00f520001003d000044eb00e04f5400f1
:1012cc0002003200140020000e00370018c0b300da
:1012dc00c25a2c00737223001e00be0023fe0700ae
:1012ec0000027800e00f520001003d000044eb00ca
:1012fc00e04f5400020032000002eb000100370006
:10130c000082eb00040078004f0478000080fa00a3
:10131c00000006001200fa00889fbe0050079800db
:10132c006107980072079800030f98000002eb0009
:10133c00940888000002eb005408880018c0b30021
:10134c006011b8007e0090008e08900048fe0700e7
:10135c0000027800e00f520001003a000044eb005c
:10136c00084278000404a200e04f5200080032004a
:10137c000828a900940880000440a0000450a00094
:10138c0094088800843e20007408880051003700bf
:10139c000828a8005e029000ee02900054408800dd
:1013ac00654088000002eb00744088000002eb00ee
:1013bc0084408800de0290006e029000048242009d
:1013cc00cfa2de000400be0026fe07000002be0015
:1013dc0002002000030024000400be009ffd070053
:1013ec000002be00048fbe001e01be007e009000f5
:1013fc008e08900099fd07000002be00240798009b
:10140c00350798002e009000be00900085ff070065
:10141c0000027800440798004e02900004427800c5
:10142c00634262000482fb00630262004422dd001e
:10143c0096088000f5fc2f008502630005027200ff
:10144c00940888004e029000cfa2de000400be007b
:10145c0004fe07000002be000401be0000002000d4
:10146c0011b624007dfd07000002be000404be007e
:10147c0002002000030a24002e009000be00900001
:10148c0076fd07000002be000401be000800be008d
:10149c004cfe07000002be000400be00d6fd070093
:1014ac000002be0004027800740888007e019000df
:1014bc008e0990001e00be0042fe07000002be0016
:1014cc000400be00abfd07000002be000402780061
:1014dc009440880084e0a9008ce0a80013e1a800e7
:1014ec004f04be000080fa00000006003600f80031
:1014fc00809fbe00829fbe00849fbe00869fbe0060
:10150c003400f80000002000a00188000000fa0060
:10151c0084e0a9004440800062026200e00f5200a7
:10152c00370032007040800081408000e8fe0700e8
:10153c0000027800e00f520017003a00744080005f
:10154c0065024200744088008440800065024200bd
:10155c00844088007040800081408000cc000700ef
:10156c00241680004622de00614262000404a200c0
:10157c00614262000482fb00610262004622dd00cf
:10158c0026168000f5fb2f00850263000502720011
:10159c00241688001a003700e7fe070000027800c6
:1015ac00e00f5200160032007440800065025200b9
:1015bc00744088008440800065025200844088009a
:1015cc007040800081408000b1000700241680002c
:1015dc004a22de00614262000404a2006142620001
:1015ec000482fb00610262004a22dd0026168000a4
:1015fc00f5bf2f00850263000502720024168800d7
:10160c00cc0007000002780004f0a7000402ea00f6
:10161c000402e9004f22de00044278000482fb0041
:10162c006102620046408000e5ff2f0085026300e6
:10163c0005027200444088000080fa003400f90072
:10164c004f03be004f02be004f01be004f00be0054
:10165c003600f900004006000800fa00008fbe00ba
:10166c0022079800330798000808a8000000eb0038
:10167c001afc07000000eb0025fc07001e02780096
:10168c00cfa2de0024408800354088001e02900066
:10169c00cfa2de0004408800154088002e00900088
:1016ac00be0090007a00070000000000444080005b
:1016bc0061026200e00f5200fcff3a000080fa0069
:1016cc00000006000c00fa00500798005e02900023
:1016dc00e00f520015003d005e0290000402ea008b
:1016ec00cfa2de000400be005efd07000002be00bb
:1016fc0002be2400134a24000400be00b1fd070002
:10170c000002be0002002000433b24000400be0087
:10171c00d2fc07000002be000400be0015fd07004d
:10172c000002be0004027800130037005e02900035
:10173c00cfa2de000400be004afd07000002be007e
:10174c0002be2400134a24000400be009dfd0700c5
:10175c000002be0002002000433b24000400be0037
:10176c00befc07000002be000400be0001fd070025
:10177c000002be0004027800040f78001e027800fc
:10178c00140798001e027800240798005e0290004f
:10179c00e00f520005003d0004e72f0034079800cd
:1017ac000419200044079800040037000419200095
:1017bc003407980004e72f00440798003e0190007e
:1017cc00ce0190001e009000ae009000a2ff07001a
:1017dc000080fa00000006000e00fa005007980086
:1017ec00610798005e029000cfa2de000400be00ec
:1017fc001cfd07000002be0002002000830f240025
:10180c000400be006ffd07000002be000400be0015
:10181c00d8fc07000002be00040f78001e027800fe
:10182c00140798009e027800250798004440800019
:10183c0062026200e00f520005003a000419200019
:10184c00340798000419200044079800040037005e
:10185c00744080008540800034079800450798004c
:10186c006e029000e00f5200020032006e009000f9
:10187c0094ff07003e019000ce0190001e009000e6
:10188c00ae00900074ff07000080fa000000060014
:10189c000400fa00008fbe001e02780004007800dd
:1018ac0031fb07001e029000040078005afb070071
:1018bc000080fa00000006000400fa001fe1a900f5
:1018cc0021e1a900d682a900d6a2a900d6c2a900fe
:1018dc00d6e2a900d602a900d622a900d642a900b8
:1018ec00d662a900046c2f00241688006022b80070
:1018fc00048fbe000500370000000000140020001b
:10190c00050020001e0f42005e974a00f47b220067
:10191c00950020001e03be00840f5300858f5b00d2
:10192c00f5ff34000002eb00241688000080fa005a
:10193c00000006000000fa0063fb070000027800bc
:10194c00e00f520004003d005ffb0700000278002e
:10195c000402ea00020037005bfb0700000278007b
:10196c006123b9002440800035408000e00f520014
:10197c00e08f5a0002003d0060021200e0821a0063
:10198c00840f5300858f5b00170035005bfb07004d
:10199c0000027800e00f520004003d0057fb0700e6
:1019ac00000278000402ea000200370053fb070033
:1019bc00000278006123b9000440800015408000cb
:1019cc00e00f5200e08f5a0002003d00600212004e
:1019dc00e0821a00840f5300858f5b0002003500f3
:1019ec0014002000010037000002eb000400780016
:1019fc000080fa00000006000a00fa004007980078
:101a0c004e029000e00f52000a003200c42b20005e
:101a1c0024079800c42b20003407980002002000f3
:101a2c0003f823002e009000be00900039fe070042
:101a3c00070037000002eb00040f78000002eb00f7
:101a4c00140798006011b8001e00be0031fe07009c
:101a5c00c1fa07000080fa00000006000000fa003e
:101a6c0010002000e4ff07008000eb0000192000ac
:101a7c0059ff070090ff0700ffff37000200fa0034
:101a8c00000f78001e027800050020005600200090
:101a9c0007002000860f5200878f5a001d003e0061
:101aac000460010005003700070037000a0037000a
:101abc000c003700100037001300370040062000e0
:101acc0017000700140037006109200020032000d4
:101adc001a0007001000370040062000aa0007007b
:101aec000d003700920b2000910920008006200089
:101afc00070107000800370061092000400620009c
:101b0c0025000700040037002003200036020700e0
:101b1c0001003700000000000080fa000000060001
:101b2c000200fa00000f78009e0078001e0078007a
:101b3c00020007000080fa00000006000400fa0012
:101b4c00000f7800110798008000eb001e00780051
:101b5c0021ff0700a10520001e0090001eff0700ba
:101b6c00a10520001e0078001bff0700a105200026
:101b7c001e00900018ff0700044180006102620003
:101b8c00e00f520002003200a0052000cdfe07003d
:101b9c000080fa00000006000c00fa00889fbe00ce
:101bac0040079800510798004e029000cfa2de002b
:101bbc000400be002bfc07000004be005e02900077
:101bcc00cfa2de000400be0026fc07000002be000f
:101bdc000401be000400be00dafa07000002be00d9
:101bec000401be000800be009cfb07000002be0002
:101bfc000400be00d0fa07000002be00048fbe0035
:101c0c004e029000cfa2de000400be0015fc0700bf
:101c1c000004be005e029000cfa2de000400be00f5
:101c2c0010fc07000002be000401be000400be0050
:101c3c00c4fa07000002be000401be000800be008a
:101c4c0086fb07000002be000400be0081fb0700fb
:101c5c000002be000401be000400be00b9fa070079
:101c6c000002be0024079800350798008000eb00a6
:101c7c004e009000d8fe07000200200043332400e1
:101c8c001e00be004ffc07000002be0062e52000f3
:101c9c00930424000400be0070fb07000002be0089
:101cac000401be000000200041332400a4fa070008
:101cbc000002be000400be00aefb07000002be0026
:101ccc0004027800840078005e009000c2fe0700d9
:101cdc0002002000433324002e009000be00900030
:101cec0038fc07000002be0062e5200093042400cb
:101cfc000400be0059fb07000002be000401be0038
:101d0c0000002000413324008dfa07000002be00c1
:101d1c000400be0097fb07000002be00040278001e
:101d2c00840078005e009000abfe07000441800048
:101d3c0061026200e00f5200100032001e01be0072
:101d4c0000002000413324007dfa07000002be0091
:101d5c002e019000be0190000400be0078fa07002e
:101d6c000002be000400be0082fb07000002be00a1
:101d7c00040278000400780052fe07004f04be00f5
:101d8c000080fa00000006000200fa00000f780044
:101d9c008000eb001e0078008ffe070081072000fa
:101dac001e0078008cfe0700810720001e007800c2
:101dbc0089fe07000441800061026200e00f5200be
:101dcc0002003200800720003efe07000080fa006f
:101ddc00000006000a00fa00889fbe002007980049
:101dec0031079800420798003e029000cfa2de0017
:101dfc000400be009bfb07000004be004e029000d6
:101e0c00cfa2de000400be0096fb07000002be005d
:101e1c000401be000800be0010fb07000002be005b
:101e2c000400be0044fa07000002be00048fbe008e
:101e3c008000eb002e00900067fe0700a10520003b
:101e4c003e00900064fe0700020020004333240093
:101e5c001e00be00dbfb07000002be0062e5200096
:101e6c00930424000400be00fcfa07000002be002c
:101e7c000401be00000020004133240030fa0700aa
:101e8c000002be000400be003afb07000002be00c8
:101e9c0004027800840078004e0090004efe07008b
:101eac000441800061026200e00f52001500320014
:101ebc0002002000433324001e00be00c1fb0700bb
:101ecc000002be0062e52000930424000400be0062
:101edc00e2fa07000002be0002002000432b24009f
:101eec000400be0017fa07000002be000400be008a
:101efc0020fb07000002be000402780004007800fa
:101f0c00f0fd07004f04be000080fa000000060040
:101f1c000800fa0010079800210798003207980073
:101f2c009e0290001e02900004aab90004037800df
:101f3c00ae0290002e02900004aab90004027800b0
:101f4c0004034300be0290003e02900004aab900b4
:101f5c0004027800840f530005003a003e01900003
:101f6c00ae0090001e0090009aff0700180037008a
:101f7c009e0290001e02900004aab900040378008f
:101f8c00ae0290002e02900004aab9000402780060
:101f9c0004024300cfa2de000400be0031fb0700a8
:101fac000002be000400be00bafb07000002be0027
:101fbc000400be00effa07000002be00040f780018
:101fcc001e017800ae0090001e00900081ff0700fb
:101fdc000080fa00000006000800fa00889fbe008e
:101fec0020079800310798000002eb00040f7800de
:101ffc00200037002e0290000482e900cfa2de0000
:10200c000400be0017fb07000002be000200200007
:10201c00433324000400be006afb07000002be002c
:10202c000404be002e029000cfa2de000400be000d
:10203c000cfb07000002be000401be000800be003d
:10204c0086fa07000002be000400be00c9fa0700b1
:10205c000002be0014079800450b20001e029000e1
:10206c0004825200840078003e009000dafd0700e4
:10207c001e0fe8002e0290009e027800848f520002
:10208c00dcff35004f04be000080fa0000000600a3
:10209c001200fa00889fbe0070079800010f98008c
:1020ac008e0a90000e0a900004aab900040278006f
:1020bc00cfa2de000400be00eafa07000004be0056
:1020cc007e029000cfa2de000400be00e5fa0700fd
:1020dc000002be000401be000400be0099f9070016
:1020ec000002be000401be000800be005bfa07003f
:1020fc000002be000404be007e029000cfa2de00ef
:10210c000400be00d7fa07000002be000200200047
:10211c0003f023000400be002afb07000002be00ef
:10212c000401be000800be0086f907000002be00d4
:10213c003407980045079800fe0290007e0290003c
:10214c0004aab900040378008e0a90000e0a9000cd
:10215c0004aab9000402780004024300cfa2de00f6
:10216c000400be00bffa07000002be000400be005f
:10217c0048fb07000002be00540798006507980052
:10218c003e029000ce0290000401be000400be008e
:10219c006cf907000002be000401be005e00900056
:1021ac00ee0090002dfa07000002be000400be00f5
:1021bc0028fa07000002be000401be000400be00a5
:1021cc0060f907000002be00048fbe0018c0b30007
:1021dc006011b8003e009000ce00900063fa07003a
:1021ec0000027800e00f520001003c000044eb00bc
:1021fc00e04f5400030032000002eb00240798006b
:10220c000200370014002000240798000e0a9000ea
:10221c00e00f520006003d001e01be0060e52000ec
:10222c00910c240046f907000002be00048fbe008a
:10223c003e009000ce0090004efa07000002be0057
:10224c000402780004f0a7000402ea001e01be009c
:10225c00ae00900004007800030007004f04be009d
:10226c000080fa00000006001a00fa00889fbe00e9
:10227c00100f9800210f9800320f9800430f980010
:10228c001e0a90005403b000cfa2de000400be0072
:10229c0074fa07000004be001e0a9000cfa2de00f4
:1022ac000400be006ffa07000002be000401be006d
:1022bc000800be00e9f907000002be00048fbe0052
:1022cc0002002000833424001e00be00bdfa07006b
:1022dc000002be000400be0026fa07000002be0089
:1022ec000402780034079800840c200044079800fe
:1022fc0002002000833424001e00be00b1fa070047
:10230c000002be000400be001afa07000002be0064
:10231c0004027800850c200055079800640798008b
:10232c001e0a9000cfa2de000400be004dfa07008a
:10233c000002be003e099000ce0990000400be00d1
:10234c00a0fa07000002be0002002000830f240048
:10235c000400be009bfa07000002be000400be0091
:10236c0004fa07000002be00240798002e02900019
:10237c00740798002e029000040f98002e0a90000b
:10238c00e00f520006003a003e019000ce01900092
:10239c007e0090008e089000affc0700050037000f
:1023ac005e019000ee0190007e0090008e0890007f
:1023bc00a9fc07004f04be000080fa0000000600d4
:1023cc000400fa00000f78001107980062e5200065
:1023dc00930c24009e0090001e007800a2ff0700c2
:1023ec000080fa00000006000200fa00000f7800de
:1023fc008000eb001e007800f1ff07000080fa005f
:10240c00000006000000fa002008a8000080fa0076
:10241c00000006000000fa00c4c2a900c4e2a90032
:10242c00c522a900c582a900c542a900c5a2a90060
:10243c00c5c2a900c5e2a900c0c2a900c0e2a9009a
:10244c00c122a900c182a900c142a900c1a2a90050
:10245c00c1c2a900c1e2a900d022a900cc22a900c6
:10246c00d042a900cc42a900e2e2a900e302a900f3
:10247c00e802a900e822a900dee2a900df02a90017
:10248c00e402a900e422a900e202a900de02a900ec
:10249c00d602a900d622a900d642a900d662a9006c
:1024ac00d682a900d6a2a900d6c2a900d6e2a9005c
:1024bc00d202a900d222a900d242a900d262a9005c
:1024cc00d282a900d2a2a900d2c2a900d2e2a9004c
:1024dc00d1a2a900cda2a900e842a900e862a900f6
:1024ec00e442a900e462a900de22a800dec2a80032
:1024fc00e4c2a800e4e2a800e502a800e522a800d6
:10250c00d302a800d322a800d342a800d362a8000b
:10251c00d382a800d3a2a800d3c2a800d3e2a800fb
:08252c000080fa000000060027
:020000040000fa
:102534000008000014000000000000002008000053
:102544000200000000000000140800000c0000005d
:10255400000000002208000002000000000000004b
:042564000000000073
:020000040000fa
:0200000401f009
:04000000e6bf000057
:020000040000fa
:0200000401f009
:04000400ff7f00007a
:020000040000fa
:0200000401f009
:040008007fff000076
:020000040000fa
:0200000401f009
:04001400ffff0000ea
:00000001FF
