:020000040000fa
:080000000001040000000000f3
:020000040000fa
:100008009e0300009e0300009e0300009e03000064
:100018009e0300009e0300009e0300009e03000054
:100028009e0300009e0300009e0300009e03000044
:100038009e0300009e0300009e0300008e0800003f
:100048009e0300009e0300009e0300009e03000024
:100058009e0300009e0300009e0300009e03000014
:100068009e0300009e0300009e0300009e03000004
:100078009e030000260200009a0100009e03000073
:100088009e0300009e0300009e0300009e030000e4
:100098009e0300009e0300009e0300009e030000d4
:1000a8009e0300009e0300009e0300009e030000c4
:1000b8009e0300009e0300009e0300009e030000b4
:1000c8009e0300009e0300009e0300009e030000a4
:1000d8009e0300009e0300009e0300009e03000094
:1000e8009e0300009e0300009e0300009e03000084
:0800f8009e0300009e030000be
:020000040000fa
:100108009e0300009e0300009e0300009e03000063
:100118009e0300009e0300009e0300009e03000053
:100128009e0300009e0300009e0300009e03000043
:100138009e0300009e0300009e0300008e0800003e
:100148009e0300009e0300009e0300009e03000023
:100158009e0300009e0300009e0300009e03000013
:100168009e0300009e0300009e0300009e03000003
:100178009e030000260200009a0100009e03000072
:100188009e0300009e0300009e0300009e030000e3
:100198009e0300009e0300009e0300009e030000d3
:1001a8009e0300009e0300009e0300009e030000c3
:1001b8009e0300009e0300009e0300009e030000b3
:1001c8009e0300009e0300009e0300009e030000a3
:1001d8009e0300009e0300009e0300009e03000093
:1001e8009e0300009e0300009e0300009e03000083
:0801f8009e0300009e030000bd
:020000040000fa
:10020000af8120000e7f22000e0188000000000058
:10021000000020000000e000020032000001200089
:10022000200288000c000700a0d020000100200060
:1002300011000700000020000000e0000200320072
:1002400000000200000000005e0c02000000000040
:100250000040da000000fe004440a9000000200039
:100260000000e0000300320000002000a001880030
:100270004440a8000000060091018800800078003a
:100280000000eb0015003700e280400032a0b4000f
:100290009101ba00e280400032a0b4009102ba009d
:1002a000e280400032a0b4000002eb00472bde00e9
:1002b000f507b200602ce10004003a000059eb00a1
:1002c0008301e900fdff3e00040037006128e100e2
:1002d000010032000082eb00040007001101ba00a7
:1002e0000200e000e8ff3a00000006003159ba00c1
:1002f0008301e9000c0032002159ba008301e900b2
:10030000080032000400e00003003a00e2804000f0
:1003100032a0b400f5ff370011d9ba008301e9001b
:10032000faff3a008100e800e180400032a0b4000a
:1003300000000600849fbe00869fbe003400f800c7
:1003400004002000a40188000000fa0086c0a90073
:1003500004408000e00f52000c0034002440800074
:100360000402e80024408800544080000402e900b0
:100370005440880054408000e00f52000e003d00c1
:1003800034002000544088000b00370024408000d7
:100390000402e90024408800544080000402e80080
:1003a0005440880054408000e30f520002003400a3
:1003b0000002eb005440880054408000cfa2de00d1
:1003c0003600200007002000860f5200878f5a0059
:1003d00019003e00046001000300370007003700e9
:1003e0000b0037000f003700d602a900d622a80064
:1003f000d642a900d662a8000f003700d602a90095
:10040000d622a800d642a800d662a9000a0037006a
:10041000d602a800d622a900d642a800d662a9001a
:1004200005003700d602a800d622a900d642a900ae
:10043000d662a800000000000080fa003400f90035
:100440004f03be004f02be0000400600849fbe0066
:10045000869fbe003400f80004002000a40188003c
:100460000000fa0086a0a90014408000e00f5200ae
:100470000c003d00344080000402e9003440880054
:10048000444080000402e900444088004440800069
:10049000e00f52000e003d00340020004440880070
:1004a0000b003700344080000402e800344088002c
:1004b000444080000402e80044408800444080003a
:1004c000e30f5200020034000002eb0044408800b9
:1004d00044408000cfa2de0036002000070020004c
:1004e000860f5200878f5a0019003e0004600100f9
:1004f00003003700070037000b0037000f003700fc
:10050000d682a900d6a2a800d6c2a900d6e2a80029
:100510000f003700d682a900d6a2a800d6c2a80034
:10052000d6e2a9000a003700d682a800d6a2a90008
:10053000d6c2a800d6e2a90005003700d682a800de
:10054000d6a2a900d6c2a900d6e2a80000000000e9
:100550000080fa003400f9004f03be004f02be00d5
:10056000004006000000fa00e50407000080fa00e1
:10057000000006000200fa00000f78001e0278005a
:10058000e00f520006003a0021e1a900d602a900be
:10059000d622a900d642a900d662a9001f003700c2
:1005a00021e1a9001e027800044088000002eb004f
:1005b00004098800040980000440a0000450a00041
:1005c000040988000002eb00c40888001e027800bd
:1005d00004f0a7000402ea00cfa2de000400be007f
:1005e000a30107000002be000401be0000002000bd
:1005f000117624001c0107000002be000400be00aa
:10060000800107000002be0004027800e4088800b0
:1006100086c0a9008ec0a80021e1a8000080fa00d1
:10062000000006000200fa00000f78001e027800a9
:10063000e00f520006003a001fe1a900d682a9008f
:10064000d6a2a900d6c2a900d6e2a9001f00370091
:100650001fe1a9001e027800144088000002eb0090
:10066000f4088800f40880000440a0000450a000b2
:10067000f40888000002eb00a40888001e0278003d
:1006800004f0a7000402ea00cfa2de000400be00ce
:10069000770107000002be000401be000000200038
:1006a00011762400f00007000002be000400be0026
:1006b000540107000002be0004027800d40888003c
:1006c00086a0a9008ea0a8001fe1a8000080fa0063
:1006d000000006000000fa002440800004007800ba
:1006e0000080fa00000006000200fa00000f780007
:1006f0001027fc001e027800244088000200fc0045
:100700000080fa00000006000000fa00344080007b
:10071000040078000080fa00000006000200fa00e1
:10072000000f78001027fc001e027800344088007b
:100730000200fc000080fa00000006000040da0021
:100740000000fe00320020005e00370003f0a2002f
:10075000889fbe008a9fbe008c1f7800840107001e
:100760008b0133006450e1004f0032006420e1004f
:100770005200320003826c0007003b000905d000e4
:100780000306d000820f54000c065d000200390001
:100790000200320089017800030678008582550046
:1007a00004003d000003fd008103fd008502ea0016
:1007b0008b854200840f720002003b006000100035
:1007c000e08018006011b8000005eb007a28e10015
:1007d0000a00390006007800c75ddd00f707b200a7
:1007e000878075002d003700828171000a01780032
:1007f000610560008180d1000080d3008502e9009e
:10080000f9ff3b00060440008784480002003b00db
:1008100060041400e0841c000988a3000700320073
:100820008a81710082817100610164008904d100b4
:100830000884d3008b05e800170037000978a3006f
:1008400013003a000b00e000130034008b05e900b0
:100850000804440089844c000a4474000978a30009
:100860000d003a000b00e000070034008b05e900a2
:100870000804440089844c0001003a000b00200069
:100880000978a300f7ff32000001eb0002003700f7
:10089000828171000a017800fa0007000cf0a700bd
:1008a00001f0a000430137006420e10002003a009b
:1008b000838f6c00430133000801be000200be00bc
:1008c0003c013700889fbe008a9fbe008c9fbe00ff
:1008d0000206780001f0a7000cf0a0000004be00a2
:1008e0000e0107000800be006420e1000700390087
:1008f00002003a00f1ff2700f0ff2f000160a00086
:1009000012022000c24088005100370009f0a10007
:100910000800be000200200003f823009600070034
:10092000f4ff3c000800be000200200003982300f2
:100930008f0007000800be003000350002002000d4
:1009400003f023008c00070005003c000800be00f7
:100950000801be001e0107000005be000e003700a2
:100960000c10a2000000200001f823000801be00c6
:1009700076ff07000200200003f0230014010700a7
:100980000005be00460107000200200003002c0005
:100990000f0107000004be000a00be00b2d028000c
:1009a000130b2c006aff07000a01be0008010700b4
:1009b000020f2500330b240065ff0700809fbe0057
:1009c0000a00be005206220013f02b0000010700af
:1009d000b2662100f3f623005dff07000a01be00a6
:1009e000fb0007004f01be001f0007000801be000a
:1009f000f70007000801be0055ff07000c00a70024
:100a000007003700b2fd200093fc23000c10a70064
:100a10004fff07000cf0a70001f0a2000c00370008
:100a20000cf0a7000200370001f0a200040037001c
:100a3000b2fd2000930424000c10a6000300370030
:100a4000b2fd200093fc23000c10a70040ff07001c
:100a50004f06be004f05be004f04be00000006005a
:100a60000001eb0097ff3700889fbe008a9fbe0001
:100a70008c1f7800be000700c500330003866c00a1
:100a80006450e1002e0032006420e10033003200a7
:100a90006150e1002f0032006120e100310032009e
:100aa00085855500eb07b0000900200008042000f0
:100ab000050037000804440089844c000a00310016
:100ac0000603430087834b000001530081815b00d4
:100ad000f8ff33000203be000800a0000804440031
:100ae00089844c00f6ff3900c639dd0083017300ac
:100af00001003200130020008904d1000884d300d3
:100b00000998a300050032000800a7000300a00018
:100b10008904d1000884d3008b05e8008904d10042
:100b20000884d3000001eb000281d20055000700c9
:100b300001f0a1000cf0a70001f0a0009d0037001b
:100b40006420e1009f0032000801be000200be00e8
:100b5000f7ff37006120e1009a0032006000b80022
:100b6000f3ff37000000200001f82700f0ff3700f6
:100b700014002000ff003700f4ff2f00fd003700b5
:100b80000001be00650007000470a70003f0a1008b
:100b90006509b100160032000d0035006828e1003b
:100ba00006003500f0ff2f00f1ff27000300e000f2
:100bb00013003b0001002800000005000000400079
:100bc000818048008502e900fcff3a0008003700f8
:100bd000f88f420002003c008000eb00000005009e
:100be0008100d1000080d3008502e800fcff3a00bc
:100bf0000300e00002003b0060001000e0801800ed
:100c0000000006000001be00440007000470a700b9
:100c100003f0a10003f8a30013003a006509b10036
:100c200010003200090035006928e100020035009b
:100c300001002800000005000000400081804800fd
:100c40008502e900fcff3a0000000600f88f420030
:100c5000050035008100d1000080d3008502e80046
:100c6000fcff3a00000006008000eb0000000500d9
:100c70004f89de0082017800d90037006011b8008a
:100c8000e700370081002000618055000b003d0027
:100c90000b00200061fe2f000100e1001d00340068
:100ca00082817100610164008904d1000884d3004d
:100cb0000000e800faff3a007100200061006400c3
:100cc000030070000200600009003200610444006b
:100cd000e0844c000988a500050032008b05e8007f
:100ce0006808e10002003a008904d1000884d300ba
:100cf000f20f20000258e10005003d00c75ddd0055
:100d0000f907b2008980750008007800000006002d
:100d10000bf827008b00780000000500c70ade00f2
:100d2000f107b200f50fb20008003200e1cf420037
:100d3000020032000170a00024000500810f700045
:100d4000010032000408050044000500810f700016
:100d500002003a00140005008502e900000040008e
:100d600081c04800fcff3b000170a000240005008a
:100d70000004be00e9ff07000003be000405be003a
:100d80000200be00e5ff0700844f7500000006006a
:100d90000200be006450e100050036006420e1005e
:100da000020036000968a30001003a000800be00f6
:100db0000160a0004f0678004f05be004f04be0042
:100dc00000000600f0ff2f00f1ff2700f9ff3700b9
:100dd000889fbe008a9fbe008c1f7800e4ff07003a
:100de000ebff330003866c006450e1002400320006
:100df0006420e100270032006150e100220032004f
:100e00006120e100210032008b854200eb07b10038
:100e10000134b800003ab8000804420089844a004e
:100e2000013ab8000030b8008880400009014a004b
:100e300004003300000040008180480002014900a6
:100e40008b05e900c909dd00830170000100320053
:100e500013002000c814de004814dd004709de003e
:100e60001200b200c808de000884700085ff070089
:100e700001f0a1000cf0a70001f0a000cdff3700a9
:100e80006120e100cfff32000801be000200be0079
:100e9000f7ff37006150e100fcff3a00c9ff37005f
:100ea000889fbe008a9fbe008c1f78000004be0091
:100eb0009aff07000478a30026003a006120e100b1
:100ec0002500320009f8a30025003a006420e10063
:100ed00021003200f507b1000508a300020032002e
:100ee00000004000818048006044b80003102000ea
:100ef00002002000000040008180480008054400f6
:100f000089854c000a0541008b8549000a0550007f
:100f10008b855800030033000a00be0002047400f1
:100f2000838474008301d1000281d300830f710098
:100f3000f0ff3a008904d1000884d3006001490021
:100f400082017800c1adde00fb07b0004dff070055
:100f500098ff37000960a0000800be0095ff370029
:100f600012022000c2408800f0ff2f00f1ff27008e
:100f700090ff3700889fbe008a9fbe00841f7800c4
:100f80007bff07004f00780011003300f0ff2f00b7
:100f9000838f6c0006003b00040565000a00a70073
:100fa0000800370009f0a6001000200008003700f4
:100fb000820f5400838f5c00030039001000200072
:100fc00001003e000000200009f0a7000000ea0038
:100fd0004f05be004f04be000000e0000000060008
:100fe000881f7800030478000300e00007003d003c
:100ff00060001000e080180060011900e081190015
:1010000002003b0001f02d00030037000400070040
:1010100008f0a70001f0a0004f04780000000600cf
:10102000889fbe008a9fbe0000827000040271008b
:1010300004827100260032000004be000200be00df
:101040006011b8006b092000950220000182cf00da
:101050000a0039000541b1000082cf0007003900c5
:101060000541b1000982cf00040039000541b100fb
:101070000882cf00010039000541b100054252004d
:10108000120032000a003b0082817100610164009d
:101090008100d1000080d3008984d3000884d3006c
:1010a0008b05e8000442e800f7ff3a00070037002c
:1010b0000804440089844c000000480081804800f6
:1010c0008b05e9000442e900f9ff3a00edfe070054
:0c10d0004f05be004f04be0000000600eb
:020000040000fa
:1010dc000000fa000002eb009408880094088000dd
:1010ec000440a0000450a000940888000002eb000b
:1010fc0054088800843e20007408880084e0a9000d
:10110c008ce0a80013e1a8000080fa0000000600a3
:10111c003600f800809fbe00829fbe00849fbe00f8
:10112c00869fbe003400f80000002000a00188005b
:10113c000000fa0084e0a900b80007000002780063
:10114c0004f0a7000402ea000402e9004f22de00ca
:10115c00a44088000080fa003400f9004f03be0060
:10116c004f02be004f01be004f00be003600f9001a
:10117c00004006000800fa00008fbe00220798000d
:10118c003307980014002000a44088000000eb00f6
:10119c0052fd07000000eb005dfd07001e02780009
:1011ac000500200084408800954088001e029000b5
:1011bc000500200064408800754088002e009000d7
:1011cc00be0090007000070000000000a4408000ea
:1011dc00e00f5200fdff3a000080fa00000006000c
:1011ec000c00fa00500798005e029000e00f5200cd
:1011fc0015003d005e0290000402ea00cfa2de0062
:10120c000400be0097fe07000002be0002be2400d0
:10121c00134a24000400be00eafe07000002be00d0
:10122c0002002000433b24000400be000bfe07001c
:10123c000002be000400be004efe07000002be000d
:10124c0004027800130037005e029000cfa2de008b
:10125c000400be0083fe07000002be0002be240094
:10126c00134a24000400be00d6fe07000002be0094
:10127c0002002000433b24000400be00f7fd0700e1
:10128c000002be000400be003afe07000002be00d1
:10129c0004027800040f78009e0278001e02780089
:1012ac0015079800240798005e029000e00f52008a
:1012bc0005003d0004e72f003407980004192000b6
:1012cc0044079800040037000419200034079800e4
:1012dc0004e72f00440798003e019000ce019000d7
:1012ec001e009000ae009000a2ff07000080fa00e4
:1012fc00000006000e00fa005007980061079800e5
:10130c005e029000050020000400be0058fe07009d
:10131c000002be0002002000830f24000400be0067
:10132c00a8fe07000002be000400be0032fe07004b
:10133c000002be00040f78001e027800140798000b
:10134c001e02780024079800041920003407980026
:10135c0004192000440798006e029000e00f520020
:10136c00020032006e0090009dff07003e019000cd
:10137c00ce0190001e009000ae0090007dff070093
:10138c000080fa00000006000400fa00008fbe0086
:10139c001e0278000400780073fc07001e02900007
:1013ac00040078009cfc07000080fa000000060096
:1013bc000400fa001fe1a90021e1a900d682a900ce
:1013cc00d6a2a900d6c2a900d6e2a900046c2f00af
:1013dc00241688006022b800048fbe000500370078
:1013ec000000000014002000050020001e0f420029
:1013fc005e974a00f47b2200950020001e03be007d
:10140c00840f5300858f5b00f5ff34000002eb0066
:10141c00241688000080fa00000006000000fa0084
:10142c00a9fc070000027800e00f520004003d0008
:10143c00a5fc0700000278000402ea000200370055
:10144c00a1fc0700000278006123b90084408000f1
:10145c0095408000e00f5200e08f5a0002003d00e2
:10146c0060021200e0821a00840f5300858f5b002b
:10147c0017003500a1fc070000027800e00f5200b5
:10148c0004003d009dfc0700000278000402ea0005
:10149c000200370099fc0700000278006123b900b4
:1014ac006440800075408000e00f5200e08f5a00cd
:1014bc0002003d0060021200e0821a00840f53000b
:1014cc00858f5b00020035001400200001003700fe
:1014dc000002eb00040078000080fa000000060017
:1014ec000000fa00fafe07001bfc07000080fa005f
:1014fc00000006000200fa00000f78001e027800bf
:10150c00050020004600200007002000860f520036
:10151c00878f5a0019003e00046001000400370058
:10152c0006003700090037000b0037000f003700aa
:10153c00400620001400070011003700610920004c
:10154c0020032000170007000d0037004006200084
:10155c007d0007000a003700920b20009109200043
:10156c00800620008b000700050037008107200053
:10157c004006200022000700010037000000000098
:10158c000080fa00000006000200fa00000f78004c
:10159c009e0078001e007800020007000080fa0010
:1015ac00000006000400fa00000f780011079800f4
:1015bc008000eb001e0078004eff0700a105200004
:1015cc001e0090004bff0700a10520001e007800b4
:1015dc0048ff0700a10520001e00900045ff0700f2
:1015ec00b440800061026200e00f52000200320041
:1015fc00a0052000fafe07000080fa00000006009b
:10160c000800fa00889fbe00200798003107980058
:10161c002e029000050020000400be0094fd07007f
:10162c000004be003e029000050020000400be0035
:10163c008ffd07000002be000401be000400be00c6
:10164c0040fc07000002be000401be000800be0002
:10165c0002fd07000002be000400be0036fc0700bd
:10166c000002be000400be0042fd07000002be00e6
:10167c0004027800450b2000048f52002e029000cb
:10168c00050020000400be0079fd07000004be0028
:10169c003e029000050020000400be0074fd07000f
:1016ac000002be000401be000400be0025fc0700c1
:1016bc000002be000401be000800be00e7fc0700eb
:1016cc000002be000400be00e2fc07000002be00e7
:1016dc000400be0027fd07000002be0004027800d3
:1016ec00a505200004825200040242001407980051
:1016fc008000eb002e009000fefe07009e0078009c
:10170c003e009000fbfe07009e0090003e00900003
:10171c00f8fe0700b440800061026200e00f520046
:10172c0006003200440b20009e0252001e02900064
:10173c000482520004007800a9fe07004f04be008a
:10174c000080fa00000006000200fa00000f78008a
:10175c008000eb001e007800e6fe070081072000e9
:10176c001e007800e3fe0700810720001e007800b1
:10177c00e0fe0700b440800061026200e00f5200fe
:10178c00020032008007200095fe07000080fa005e
:10179c00000006000800fa00889fbe0010079800a1
:1017ac0021079800320798009e0290001e029000bc
:1017bc0004aab90004037800ae0290002e02900037
:1017cc0004aab9000402780004034300be0290008e
:1017dc003e02900004aab90004027800840f530062
:1017ec0028003a002e029000050020000400be00e4
:1017fc001ffd07000004be003e0290000500200003
:10180c000400be001afd07000002be000401be0069
:10181c000800be0091fc07000002be000400be00e0
:10182c00c5fb07000002be000400be00d1fc07008f
:10183c000002be0004027800450b2000048f520009
:10184c008000eb001e009000aafe0700a1052000fe
:10185c002e009000a7fe07009e0078003e0090002e
:10186c00a4fe0700b440800061026200e00f520049
:10187c0004003200a40520001e025200040078006f
:10188c0057fe07004f04be000080fa00000006005f
:10189c000200fa00000f78000080fa000000060039
:1018ac000000fa001608a8000080fa0000000600ec
:1018bc000800fa000aff0700f9ff0700843e200029
:1018cc00040f7800843e2000140798004406200082
:1018dc002407980004192000340798002e0190006a
:1018ec00be0190001e00be0022fe0700b0fe0700e5
:1018fc00ffff37000000fa00c4c2a900c4e2a9002f
:10190c00c522a900c582a900c542a900c5a2a9008b
:10191c00c5c2a900c5e2a900c0c2a900c0e2a900c5
:10192c00c122a900c182a900c142a900c1a2a9007b
:10193c00c1c2a900c1e2a900d022a900cc22a900f1
:10194c00d042a900cc42a900e2e2a900e302a9001e
:10195c00e802a900e822a900dee2a900df02a90042
:10196c00e402a900e422a900e202a900de02a90017
:10197c00d602a900d622a900d642a900d662a90097
:10198c00d682a900d6a2a900d6c2a900d6e2a90087
:10199c00d202a900d222a900d242a900d262a90087
:1019ac00d282a900d2a2a900d2c2a900d2e2a90077
:1019bc00d1a2a900cda2a900e842a900e862a90021
:1019cc00e442a900e462a900de22a800dec2a8005d
:1019dc00e4c2a800e4e2a800e502a800e522a80001
:1019ec00d302a800d322a800d342a800d362a80037
:1019fc00d382a800d3a2a800d3c2a800d3e2a80027
:081a0c000080fa000000060052
:020000040000fa
:101a1400000800000c000000000000000c0800009a
:101a24000a00000000000000160800000200000088
:101a34000000000018080000020000000000000080
:041a4400000000009e
:020000040000fa
:0200000401f009
:04000000e6bf000057
:020000040000fa
:0200000401f009
:04000400ff7f00007a
:020000040000fa
:0200000401f009
:040008007fff000076
:020000040000fa
:0200000401f009
:04001400ffff0000ea
:00000001FF
